:100000000C94FB000C941A010C941A010C941A0124
:100010000C941A010C9458050C941A010C941A01B2
:100020000C941A010C941A010C941A010C941A01E4
:100030000C941A010C941A010C941A010C941A01D4
:100040000C941A010C941A010C941A010C941A01C4
:100050000C941A010C941A010C941A010C941A01B4
:100060000C941A010C941A010C941A010C941A01A4
:100070000C941A010C941A010C941A010C941A0194
:100080000C941A010C941A010C941A010C941A0184
:100090000C941A010C941A010C941A010C941A0174
:1000A0000C941A010C941A010C941A010C941A0164
:1000B0000C941A010C941A010C941A010C941A0154
:1000C0000C941A010C941A010C941A010C941A0144
:1000D0000C941A010C94F8040C941A010C941A0153
:1000E0000C941A010C941A010C941A010C941A0124
:1000F0000C941A016E616E00696E660000407A1001
:10010000F35A00A0724E18090010A5D4E80000E8C8
:100110007648170000E40B54020000CA9A3B000026
:1001200000E1F505000080969800000040420F00B5
:100130000000A08601000000102700000000E80376
:10014000000000006400000000000A000000000041
:100150000100000000002C76D888DC674F0823DF00
:10016000C1DFAE59E1B1B796E5E3E453C63AE651D3
:10017000997696E8E6C28426EB898C9B62ED407CFA
:100180006FFCEFBC9C9F40F2BAA56FA5F490055A96
:100190002AF75C936B6CF9676DC11BFCE0E40D47BB
:1001A000FEF520E6B500D0ED902E030094357705DE
:1001B0000080841E080000204E0A000000C80C3396
:1001C0003333330F986E12831141EF8D2114893B25
:1001D000E65516CFFEE6DB18D1844B381BF77C1DA5
:1001E000901DA4BBE424203284725E228100C9F1F8
:1001F00024ECA1E53D2711241FBECFEFCDBFDFE7E3
:10020000DEBF10E4A0E0B0E4EEE1F5E200E00BBFF9
:1002100002C007900D92A830B107D9F721E4A8E0F9
:10022000B0E401C01D92AB35B207E1F70E947D0D2D
:100230000C948D120C9400002F923F924F925F927B
:100240006F927F928F929F92AF92BF92CF92DF92E6
:10025000EF92FF920F931F93CF93DF93CDB7DEB74B
:100260006097CDBFDEBF7C011B016A01FC011682D5
:100270001782838181FF44C39E012F5F3F4F390165
:10028000F7019381F10193FD859193FF81911F0106
:10029000882309F431C3853239F493FD859193FFA6
:1002A00081911F01853239F4B70190E00E94BA11A3
:1002B00056016501E5CF10E0512C912CFFE1F915B5
:1002C000D8F08B3279F038F4803279F08332A1F4AF
:1002D000F92DF0612EC08D3261F0803369F4292D43
:1002E00021602DC0392D3260932E892D8460982E87
:1002F0002AC0E92DE86015C097FC2DC020ED280F1D
:100300002A3088F496FE06C03AE0139F200D11248F
:10031000122F19C08AE0589E200D1124522EE92D6B
:10032000E0629E2E10C08E3231F496FCE5C2F92DAB
:10033000F0649F2E08C08C3621F4292D2068922E5F
:1003400002C0883641F4F10193FD859193FF8191BC
:100350001F018111B3CF9BEB980F933020F4992D9F
:100360009061805E07C09BE9980F933008F066C1EA
:10037000992D9F7E96FF16E09F73992E853619F46E
:100380009064992E08C0863621F4392F3068932E58
:1003900002C01111115097FE07C01C3350F44424C1
:1003A0004394410E27E00BC0183038F027E017E0E7
:1003B00005C027E09CE3492E02C0212F412C5601A5
:1003C00084E0A80EB11CF601608171818281938165
:1003D000042DA3010E94CC106C01F981FC87F0FF71
:1003E00002C0F3FF06C091FC06C092FE06C000E208
:1003F00005C00DE203C00BE201C000E08C858C70EB
:1004000019F001115AC29BC297FE10C04C0CFC851A
:10041000F4FF04C08A81813309F44A94141474F5FA
:1004200028E0241578F588E0482E2CC096FC2AC0D8
:10043000812F90E08C159D059CF03CEFC3163FEF9B
:10044000D30674F0892D8068982E0AC0E2E0F0E0AF
:10045000EC0FFD1FE10FF11D8081803319F4115065
:100460001111F4CF97FE0EC044244394410E812F06
:1004700090E0C816D9062CF41C1904C044244394F7
:1004800001C010E097FE06C01C141D0434F4C60120
:10049000019605C085E090E002C081E090E0011186
:1004A0000196112331F0212F30E02F5F3F4F820F53
:1004B000931F252D30E08217930714F4581A01C0BA
:1004C000512C892D897049F4552039F0B70180E20B
:1004D00090E00E94BA115A94F7CF002329F0B70197
:1004E000802F90E00E94BA1193FC09C0552039F08A
:1004F000B70180E390E00E94BA115A94F7CF97FEBB
:100500004CC04601D7FE02C0812C912CC60188192F
:100510009909F301E80FF91FED87FE879601241969
:1005200031092F87388B012F10E0119501951109A2
:100530003FEF8316930629F4B7018EE290E00E9404
:10054000BA11C814D9044CF08F859889881599057B
:1005500024F4ED85FE85818101C080E3F1E08F1AEE
:1005600091082D853E852F5F3F4F2D873E87801652
:1005700091062CF0B70190E00E94BA11D9CFC814AF
:10058000D90441F49A81963320F4953319F43C85CB
:1005900034FF81E3B70190E04EC08A81813319F0C6
:1005A0009C859F7E9C87B70190E00E94BA11111133
:1005B00005C094FC18C085E690E017C0B7018EE234
:1005C00090E00E94BA111E5F82E001E0080FF30183
:1005D000E80FF11D8081B70190E00E94BA11802FD1
:1005E0000113F3CFE6CF85E490E0B7010E94BA1182
:1005F000D7FC06C0C114D10441F4EC85E4FF05C06A
:10060000D194C194D1088DE201C08BE2B70190E092
:100610000E94BA1180E32AE0C216D1042CF08F5F49
:10062000FAE0CF1AD108F7CFB70190E00E94BA11D3
:10063000B701C601C0960E94BA1154C1833631F089
:10064000833779F0833509F056C020C0560132E077
:10065000A30EB11CF6018081898301E010E06301E3
:1006600012C05601F2E0AF0EB11CF601C080D1807D
:1006700096FE03C0612F70E002C06FEF7FEFC601EE
:100680000E94AF118C01F92DFF7714C0560122E0B2
:10069000A20EB11CF601C080D18096FE03C0612F6E
:1006A00070E002C06FEF7FEFC6010E94A4118C01C1
:1006B000F92DF0689F2EF3FD1AC0852D90E00817E4
:1006C0001907A8F4B70180E290E00E94BA115A9489
:1006D000F4CFF60197FC859197FE81916F01B701E8
:1006E00090E00E94BA1151105A940150110901155D
:1006F000110579F7F7C0843611F0893661F5560196
:1007000097FE09C024E0A20EB11CF6016081718140
:10071000828193810AC0F2E0AF0EB11CF6016081C4
:100720007181072E000C880B990BF92DFF769F2EF7
:1007300097FF09C090958095709561957F4F8F4F79
:100740009F4FF0689F2E2AE030E0A3010E94F6112F
:10075000C82EC6183FC0092D853721F40F7E2AE028
:1007600030E01DC0097F8F3691F018F4883559F0BC
:10077000C3C0803719F0883711F0BEC0006104FF94
:1007800009C0046007C094FE08C0066006C028E0E7
:1007900030E005C020E130E002C020E132E0560147
:1007A00007FF09C084E0A80EB11CF60160817181C9
:1007B0008281938108C0F2E0AF0EB11CF601608126
:1007C000718180E090E0A3010E94F611C82EC61846
:1007D0000F77902E96FE0BC0092D0E7FC11650F498
:1007E00094FE0AC092FC08C0092D0E7E05C0DC2CC8
:1007F000092D03C0DC2C01C0D12E04FF0DC0FE0169
:10080000EC0DF11D8081803311F4097E09C002FFD7
:1008100006C0D394D39404C0802F867809F0D39473
:1008200003FD11C000FF06C01C2DD51480F4150D6A
:100830001D190DC0D51458F4B70180E290E00E9454
:10084000BA11D394F7CFD51410F45D1801C0512C10
:1008500004FF10C0B70180E390E00E94BA1102FFCC
:1008600017C001FD03C088E790E002C088E590E072
:10087000B7010CC0802F867859F001FF02C08BE2CF
:1008800001C080E207FD8DE2B70190E00E94BA113D
:10089000C11638F4B70180E390E00E94BA111150FC
:1008A000F7CFCA94F301EC0DF11D8081B70190E000
:1008B0000E94BA11C110F5CF15C0F4E0F51560F52E
:1008C00084E0581A93FE1FC0011127C02C8523FF16
:1008D0002AC004EF10E0392D3071932EF801849175
:1008E000811124C0552009F4E4CCB70180E290E0E6
:1008F0000E94BA115A94F6CFF7018681978126C0DB
:100900008FEF9FEF23C0B70180E290E00E94BA1101
:100910005A945110F8CFD8CF512CB701802F90E0C6
:100920000E94BA11D3CF08EF10E0D5CF91108052BA
:10093000B70190E00E94BA110F5F1F4FCFCF23E0A5
:10094000251510F483E0BDCF512CC0CF6096CDBFEC
:10095000DEBFDF91CF911F910F91FF90EF90DF905D
:10096000CF90BF90AF909F908F907F906F905F904F
:100970004F903F902F9008951092094010920A4096
:10098000E0E6F8E081E0838780E9858383E0878380
:100990008BE890E08087918716820895E0E2F4E08A
:1009A00081E08583818382E082830895E0E6F8E038
:1009B00086818064868308958091640885FB8827FA
:1009C00080F90895CF93C82F0E94DC04882331F06A
:1009D000E0E6F8E0948190649483C283CF91089517
:1009E0008091640886FB882780F991E08927089523
:1009F0001F920F920FB60F9211240BB60F922F93E6
:100A00003F934F935F936F937F938F939F93AF9396
:100A1000BF93EF93FF9380916008E0910940F091BC
:100A20000A40309709F0099510920840FF91EF9124
:100A3000BF91AF919F918F917F916F915F914F91F6
:100A40003F912F910F900BBE0F900FBE0F901F90F4
:100A5000189583E08093500008950E948D050E94B0
:100A6000A8050E94B6050E94BC040E94CE040E9404
:100A7000D6040E943C0508951092594110925A41A3
:100A8000E0E4F1E081E0858382831782818182FD49
:100A9000FDCF8FE090E080934A0190934B01E0E41A
:100AA000F1E0818180FDFDCF89EB809340010895C5
:100AB0001F920F920FB60F9211240BB60F922F9325
:100AC0003F934F935F936F937F938F939F93AF93D6
:100AD000BF93EF93FF9381E080930B40E0915941E6
:100AE000F0915A41309709F00995E0E4F1E08381F3
:100AF00081608383FF91EF91BF91AF919F918F911F
:100B00007F916F915F914F913F912F910F900BBE0D
:100B10000F900FBE0F901F901895E0E2F4E088E868
:100B2000828B88E08183E0E6F4E081E0858385E0E4
:100B300081830895809105098C7141F49091050994
:100B4000937081E0933019F080E0089581E008957A
:100B5000E0E0F9E084E08083118281E082838DEF20
:100B600085838FE0868385E083830895E0E0F4E069
:100B70008CE0818398E0938784870895909105099C
:100B800093709330E1F0880F682B60930709E0E0E1
:100B9000F9E0858185FD0AC0858182FD07C08581D8
:100BA00083FD04C085818370833099F70E949A0584
:100BB000882339F083E08093040980E0089580E081
:100BC000089581E0089520E2209305096623D1F07D
:100BD000A82FB92F90E0E0E0F9E022E0858185FDC3
:100BE00017C0858182FD07C0858183FD04C0858192
:100BF0008370833099F780858D939F5F691711F01B
:100C00002483ECCF87E08093040908952483E6CF02
:100C100080858D939F5F6913F9CFF4CF662309F127
:100C2000DC016150262F30E02F5F3F4F280F391F26
:100C3000E0E0F9E09D919087958195FD0AC095814E
:100C400092FD07C0958193FD04C095819370933008
:100C500099F7958194FD07C0A217B30759F781E072
:100C6000089581E0089580E008951F93CF93DF9366
:100C7000EB01142F60E00E94BE05882339F0612F3C
:100C8000CE010E940E0693E090930409DF91CF916C
:100C90001F910895DF92EF92FF920F931F93CF93CE
:100CA000DF937B01D42EE90160E00E94BE05182F7E
:100CB000882361F16D2DC7010E940E06182F811146
:100CC00004C083E08093040921C0E0E0F9E087815B
:100CD0008160878381E08483858185FD0AC0858169
:100CE00082FD07C0858183FD04C0858183708330C8
:100CF00099F70E949A05882329F083E080930409DC
:100D000010E004C0602FCE010E94E305812FDF9127
:100D1000CF911F910F91FF90EF90DF9008950F9367
:100D20009B01ECE0F0E490838183042F42E0BF015B
:100D30008AE30E944A060F910895CF93DF93C1E1A1
:100D4000D0E46881798180E090E00E9468126A8135
:100D50007B8182E090E00E9468126C817D8184E05A
:100D600090E00E946812409153405091544060912D
:100D700055407091564086E090E00E94601240918C
:100D80004F405091504060915140709152408AE0E4
:100D900090E00E94601240914B4050914C40609115
:100DA0004D4070914E408EE090E00E946012409164
:100DB0004740509148406091494070914A4082E1DB
:100DC00090E00E94601240914340509144406091F5
:100DD00045407091464086E190E00E94601240914B
:100DE0003F405091404060914140709142408AE1C3
:100DF00090E00E94601240913B4050913C406091D5
:100E00003D4070913E408EE190E00E946012409122
:100E10003740509138406091394070913A4082E2B9
:100E200090E00E94601240913340509134406091B4
:100E300035407091364086E290E00E946012409109
:100E40002F405091304060913140709132408AE2A1
:100E500090E00E94601240912B4050912C40609194
:100E60002D4070912E408EE290E00E9460124091E1
:100E70002740509128406091294070912A4082E398
:100E800090E00E9460124091234050912440609174
:100E900025407091264086E390E00E9460126881B0
:100EA00079818A819B81682779278C819D81682738
:100EB00079278AE390E00E946812DF91CF9108952C
:100EC0008091574008950F931F93CF93DF93CDB731
:100ED000DEB72697CDBFDEBF8C0146E0BE016F5F57
:100EE0007F4F85E094E20E948F068823D9F08981A4
:100EF00090E0982F88272A81822BF80180839183A4
:100F00008B8190E0982F88272C81822B828393837A
:100F10008D8190E0982F88272E81822B8483958362
:100F200081E001C080E02696CDBFDEBFDF91CF918A
:100F30001F910F9108958F929F92AF92BF92CF927F
:100F4000DF92EF92FF921F93CF93DF9300D0CDB744
:100F5000DEB781E190E40E946307182F882309F42B
:100F6000DCC080E090E00E945B126C0182E090E0C7
:100F70000E945B125C0184E090E00E945B124C01D5
:100F80007601EA24FB24E826F9268AE390E00E9411
:100F90005B1289839A8389819A81E816F90609F0A0
:100FA000B5C08091114090911240C816D90609F041
:100FB000AFC08091134090911440A816B90609F073
:100FC000A9C080911540909116408816990609F0A5
:100FD000A3C086E090E00E94541260935340709347
:100FE000544080935540909356408AE090E00E9490
:100FF000541260934F4070935040809351409093AF
:1010000052408EE090E00E94541260934B407093E7
:101010004C4080934D4090934E4082E190E00E947E
:101020005412609347407093484080934940909396
:101030004A4086E190E00E945412609343407093CE
:10104000444080934540909346408AE190E00E945E
:10105000541260933F40709340408093414090937E
:1010600042408EE190E00E94541260933B407093A6
:101070003C4080933D4090933E4082E290E00E944D
:101080005412609337407093384080933940909366
:101090003A4086E290E00E9454126093334070938D
:1010A000344080933540909336408AE290E00E942D
:1010B000541260932F40709330408093314090934E
:1010C00032408EE290E00E94541260932B40709365
:1010D0002C4080932D4090932E4082E390E00E941C
:1010E0005412609327407093284080932940909336
:1010F0002A4086E390E00E9454126093234070934C
:101100002440809325409093264007C010E005C0FE
:1011100010E003C010E001C010E0812F0F900F908D
:10112000DF91CF911F91FF90EF90DF90CF90BF9014
:10113000AF909F908F900895CF92DF92EF92FF92A1
:101140001F93CF93DF93CDB7DEB76897CDBFDEBFD8
:1011500081E190E40E946307182F882309F41AC2E2
:1011600040E1BE016F5F7F4F8CE094E20E948F06EA
:10117000882309F40AC22B816C81862F90E0A0E0BD
:10118000B0E0DC0199278827B22B2A81AC01BD0190
:10119000422B898190E0982F8827A0E0B0E06A0177
:1011A0007B01C82AD92AEA2AFB2AC701B6010E9474
:1011B000780F20E030E040E85BE30E940410609389
:1011C00053407093544080935540909356402F81E4
:1011D0006885862F90E0A0E0B0E0DC0199278827A1
:1011E000B22B2E81AC01BD01422B8D8190E0982F56
:1011F0008827A0E0B0E06A017B01C82AD92AEA2A40
:10120000FB2AC701B6010E94780F20E030E040E8D9
:1012100055E30E94041060934F40709350408093B8
:101220005140909352402B856C85862F90E0A0E032
:10123000B0E0DC0199278827B22B2A85AC01BD01DB
:10124000422B898590E0982F8827A0E0B0E06A01C2
:101250007B01C82AD92AEA2AFB2AC701B6010E94C3
:10126000780F20E030E040E859E20E9404106093DB
:101270004B4070934C4080934D4090934E402F854F
:101280006889862F90E0A0E0B0E0DC0199278827EC
:10129000B22B2E85AC01BD01422B8D8590E0982F9D
:1012A0008827A0E0B0E06A017B01C82AD92AEA2A8F
:1012B000FB2AC701B6010E94780F20E030E040E829
:1012C0005BE30E9404106093474070934840809312
:1012D000494090934A4048E1BE016F5F7F4F84E2EE
:1012E00094E20E948F06882309F451C12B816C81FE
:1012F000862F90E0A0E0B0E0DC0199278827B22B90
:101300002A81AC01BD01422B898190E0982F88276A
:10131000A0E0B0E06A017B01C82AD92AEA2AFB2AA8
:10132000C701B6010E94780F20E030E040E857E3A3
:101330000E94041060934340709344408093454062
:10134000909346402F816885862F90E0A0E0B0E022
:10135000DC0199278827B22B2E81AC01BD01422BDD
:101360008D8190E0982F8827A0E0B0E06A017B0192
:10137000C82AD92AEA2AFB2AC701B6010E94780F97
:1013800020E030E040E85BE30E94041060933F40BF
:101390007093404080934140909342402B856C85F0
:1013A000862F90E0A0E0B0E0DC0199278827B22BDF
:1013B0002A85AC01BD01422B898590E0982F8827B2
:1013C000A0E0B0E06A017B01C82AD92AEA2AFB2AF8
:1013D000C701B6010E94780F20E030E040E858E2F3
:1013E0000E94041060933B4070933C4080933D40CA
:1013F00090933E402F856889862F90E0A0E0B0E072
:10140000DC0199278827B22B2E85AC01BD01422B28
:101410008D8590E0982F8827A0E0B0E06A017B01DD
:10142000C82AD92AEA2AFB2AC701B6010E94780FE6
:1014300020E030E040E85DE20E9404106093374015
:10144000709338408093394090933A402B896C894F
:10145000862F90E0A0E0B0E0DC0199278827B22B2E
:101460002A89AC01BD01422B898990E0982F8827F9
:10147000A0E0B0E06A017B01C82AD92AEA2AFB2A47
:10148000C701B6010E94780F20E030E040E85DE23D
:101490000E94041060933340709334408093354031
:1014A000909336406D8970E0762F66278E89682B81
:1014B000072E000C880B990B0E94780F20E030E07B
:1014C00040E85AE30E94041060932F40709330402C
:1014D00080933140909332406F8970E0762F662779
:1014E000888D682B072E000C880B990B0E94780FB3
:1014F00020E030E040E85AE30E94041060932B4063
:1015000070932C4080932D4090932E4044E0BE0178
:101510006F5F7F4F81E894E20E948F068823C9F1B4
:10152000698170E0762F66278A81682B072E000C70
:10153000880B990B0E94780F20E030E040E858E3D8
:101540000E940410609327407093284080932940A4
:1015500090932A406B8170E0762F66278C81682BF0
:10156000072E000C880B990B0E94780F20E030E0CA
:1015700040E85AE30E940410609323407093244093
:10158000809325409093264005C010E003C010E0F2
:1015900001C010E0812F6896CDBFDEBFDF91CF91F3
:1015A0001F91FF90EF90DF90CF900895CF9381111E
:1015B00005C00E949B07C82F811108C00E949C088B
:1015C000C82F882331F00E949D0603C081E08093DC
:1015D00057408C2FCF9108950F93CF93DF93EB015A
:1015E000ECE0F0E49083818302E02EE030E442E01E
:1015F000BF018AE30E944A06882361F0ECE0F0E430
:10160000828190E0982F88272381822B8883998379
:1016100081E001C080E0DF91CF910F910895BC017E
:101620008FEF9FE30E94EC0A0895CF93DF93CDB72D
:10163000DEB72E97CDBFDEBF42E0BE016F5F7F4FAA
:101640008FEF9FE30E948F06882309F447C08A81A9
:101650008C7790E095958795959587958093104028
:101660004CE0BE016D5F7F4F83E090E40E948F06E7
:101670008823B1F1E7E1F0E48B8190E0982F88278F
:101680002C81822B808391838D8190E0982F8827F5
:101690002E81822B828393838F8190E0982F8827DD
:1016A0002885822B84839583898590E0982F8827CD
:1016B0002A85822B868397838B8590E0982F8827B5
:1016C0002C85822B808791878D8590E0982F8827A5
:1016D0002E85822B8287938781E003C080E001C042
:1016E00080E02E96CDBFDEBFDF91CF9108950F939E
:1016F0001F93CF93DF9300D0CDB7DEB7CE01019615
:101700000E940F0B882381F089819A8180FF08C095
:10171000092F0695069510E081E00827017001C0A9
:1017200000E0802F817001C080E00F900F90DF916A
:10173000CF911F910F910895ECE0F0E490838183A5
:101740007283638344E0BF018AE30E9435060895F3
:1017500062E078E081E090E30E949C0B08954F9254
:101760005F926F927F928F929F92AF92BF92CF9231
:10177000DF92EF92FF92CF93DF93CDB7DEB7619701
:10178000CDBFDEBF80911040823029F080911040A3
:10179000813009F08DC16091214070912240072E67
:1017A000000C880B990B0E94780F4B015C01609133
:1017B0001B4070911C40072E000C880B990B0E9457
:1017C000780F20E030E040E451E40E94040F6B0108
:1017D0007C0120912F403091304040913140509118
:1017E00032400E940410A50194010E94980E9B01B2
:1017F000AC01C701B6010E94040F20E030E040E0D8
:1018000059E40E94041069837A838B839C838091BE
:1018100010408130A9F4E7E1F0E4608171818281B8
:101820009381680F791F072E000C880B990B0E947B
:10183000780F20E030E040E05FE30E94041014C025
:10184000E7E1F0E46681778180859185680F791FF3
:10185000072E000C880B990B0E94780F20E030E0D7
:1018600040E05FE30E94041020E030E040E451E4F7
:101870000E94040F2B013C0120912B4030912C4001
:1018800040912D4050912E40C701B6010E94041096
:10189000A50194010E94980E9B01AC01C301B20105
:1018A0000E94040F20E030E040E059E40E94041060
:1018B0006D837E838F83988720915340309154406D
:1018C000409155405091564069817A818B819C812D
:1018D0000E94970E4B015C0120914F403091504087
:1018E00040915140509152400E94040F2091474036
:1018F000309148404091494050914A400E94980E92
:101900002B013C01A5019401C501B4010E94041002
:1019100020914B4030914C4040914D4050914E4071
:101920000E9404109B01AC01C301B2010E94980EF9
:101930002B013C0160930040709301408093024072
:101940009093034023E333E948E853E40E94980E60
:101950004B015C0120912740309128404091294063
:1019600050912A4060913B4070913C4080913D40B5
:1019700090913E400E94041069837A838B839C83FC
:101980008091334090913440A0913540B0913640E1
:1019900089879A87AB87BC8720E030E048EC51E428
:1019A000C301B2010E94970E209137403091384018
:1019B0004091394050913A400E9404106D877E87D3
:1019C0008F87988BA5019401C501B4010E94041072
:1019D000A50194010E940410A50194010E94041025
:1019E0002B013C01C0902340D0902440E090254042
:1019F000F090264093E0B0E0A0E0F8ECE1E4998BB1
:101A000020E030E048EC51E46B2F7A2F8F2F9E2F8F
:101A10000E94970E29853A854B855C850E940410AB
:101A200020E030E040E85FE30E94980E2D853E857F
:101A30004F8558890E94980E29813A814B815C819B
:101A40000E9404109B01AC016D817E818F8198857D
:101A50000E94040F4B015C01A3019201C501B40176
:101A60000E94980E0E9477100E94771023E333E9BA
:101A700048E853E40E94970EA70196010E94970E32
:101A8000A989A150A98BB62FA72FF82FE92F298953
:101A90002111B6CFC62ED72EE82EF92EC0920440C3
:101AA000D0920540E0920640F092074081E001C0EC
:101AB00080E06196CDBFDEBFDF91CF91FF90EF90C8
:101AC000DF90CF90BF90AF909F908F907F906F905E
:101AD0005F904F9008956091004070910140809117
:101AE0000240909103400895609104407091054038
:101AF000809106409091074008950E9429050E9418
:101B00002D0586B182FB882780F90E94910D78947B
:101B10000E94A60D0E94E10D81110E94E40D88959E
:101B2000F7CFCF93882329F081E00E94D60AC82FEF
:101B300004C080E00E94D60AC82F0E946007C1112D
:101B400003C084E080935940CF910895809159401B
:101B5000813091F028F08230F9F0833089F12DC086
:101B60000E94A80B811104C084E08093594008951D
:101B700081E08093594008950E94770B882301F1FA
:101B80000E94150B811104C084E080935940089590
:101B900082E080935940089588E0809327040E9452
:101BA000AF0B882331F081E0809358401092594068
:101BB000089584E080935940089583E080935940CC
:101BC00008958091584008958F929F92AF92BF924E
:101BD000CF92DF92EF92FF92109258400E946B0DCD
:101BE0004B015C010E94740D6B017C0126E636E618
:101BF00046EE5FE3C501B4010E9404104B015C0195
:101C000026E636E646EE5FE3C701B6010E94041001
:101C100020E030E040E052E40E94980E6B017C012D
:101C200020E030E040E052E4C501B4010E94980E8B
:101C3000A70196010E94560E0E94270EFF90EF907A
:101C4000DF90CF90BF90AF909F908F9008951F939B
:101C5000CF93DF9380915A40882321F1E0E6F8E0AA
:101C6000848180648483C0E0D0E010E00E94DC04C2
:101C70008823E1F3C65ADF4B88810E94E2041F5F8C
:101C8000C12FD0E0FE01E65AFF4B8081882311F07E
:101C90001F3F61F70E94DC048823E1F30E94F004F7
:101CA0008111FCCFDF91CF911F910895EF92FF92A8
:101CB0000F931F93CF93DF93CDB7DEB72A97CDBF96
:101CC000DEBFEAEAE9836A837B838C839D832E836C
:101CD0003F834887598785E58A87E0E6F8E0848175
:101CE000806484838E010F5F1F4F7E018BE0E80EBE
:101CF000F11C0E94DC048823E1F3F80181918F013B
:101D00000E94E2040E151F05A1F70E94DC0488233F
:101D1000E1F30E94F0048111FCCF2A96CDBFDEBF13
:101D2000DF91CF911F910F91FF90EF900895505840
:101D3000BB27AA270E94AF0E0C94CA0F0E94BC0FAB
:101D400038F00E94C30F20F039F49F3F19F426F4B5
:101D50000C94B90F0EF4E095E7FB0C94B30FE92F48
:101D60000E94DB0F58F3BA176207730784079507C1
:101D700020F079F4A6F50C94FD0F0EF4E0950B2EEF
:101D8000BA2FA02D0B01B90190010C01CA01A001CD
:101D90001124FF27591B99F0593F50F4503E68F128
:101DA0001A16F040A22F232F342F4427585FF3CF69
:101DB000469537952795A795F0405395C9F77EF43A
:101DC0001F16BA0B620B730B840BBAF09150A1F083
:101DD000FF0FBB1F661F771F881FC2F70EC0BA0F09
:101DE000621F731F841F48F4879577956795B79591
:101DF000F7959E3F08F0B0CF9395880F08F099278C
:101E0000EE0F9795879508950E94180F0C94CA0FAE
:101E10000E94C30F58F00E94BC0F40F029F45F3FAE
:101E200029F00C94B30F51110C94FE0F0C94B90FC0
:101E30000E94DB0F68F39923B1F3552391F3951BAF
:101E4000550BBB27AA2762177307840738F09F5FDB
:101E50005F4F220F331F441FAA1FA9F335D00E2E48
:101E60003AF0E0E832D091505040E695001CCAF7B5
:101E70002BD0FE2F29D0660F771F881FBB1F261778
:101E800037074807AB07B0E809F0BB0B802DBF014F
:101E9000FF2793585F4F3AF09E3F510578F00C941E
:101EA000B30F0C94FE0F5F3FE4F3983ED4F3869596
:101EB00077956795B795F7959F5FC9F7880F911D3F
:101EC0009695879597F90895E1E0660F771F881F2B
:101ED000BB1F621773078407BA0720F0621B730BDE
:101EE000840BBA0BEE1F88F7E0950895E89409C0BB
:101EF00097FB3EF490958095709561957F4F8F4F3D
:101F00009F4F9923A9F0F92F96E9BB279395F69552
:101F1000879577956795B795F111F8CFFAF4BB0FD0
:101F200011F460FF1BC06F5F7F4F8F4F9F4F16C034
:101F3000882311F096E911C0772321F09EE8872FBE
:101F4000762F05C0662371F096E8862F70E060E07A
:101F50002AF09A95660F771F881FDAF7880F9695F3
:101F6000879597F9089597F99F6780E870E060E09A
:101F700008959FEF80EC089500240A941616170622
:101F800018060906089500240A941216130614066A
:101F900005060895092E0394000C11F4882352F0CD
:101FA000BB0F40F4BF2B11F460FF04C06F5F7F4F85
:101FB0008F4F9F4F089557FD9058440F551F59F06C
:101FC0005F3F71F04795880F97FB991F61F09F3F26
:101FD00079F087950895121613061406551FF2CF4F
:101FE0004695F1DF08C0161617061806991FF1CF9F
:101FF00086957105610508940895E894BB276627C6
:102000007727CB0197F908950E9417100C94CA0FF7
:102010000E94BC0F38F00E94C30F20F0952311F0EE
:102020000C94B30F0C94B90F11240C94FE0F0E9462
:10203000DB0F70F3959FC1F3950F50E0551F629F22
:10204000F001729FBB27F00DB11D639FAA27F00D11
:10205000B11DAA1F649F6627B00DA11D661F829F38
:102060002227B00DA11D621F739FB00DA11D621F1D
:10207000839FA00D611D221F749F3327A00D611D3A
:10208000231F849F600D211D822F762F6A2F11241C
:102090009F5750409AF0F1F088234AF0EE0FFF1F4F
:1020A000BB1F661F771F881F91505040A9F79E3FA6
:1020B000510580F00C94B30F0C94FE0F5F3FE4F3D6
:1020C000983ED4F3869577956795B795F795E795FC
:1020D0009F5FC1F7FE2B880F911D9695879597F905
:1020E000089519F416F40C94B90F0C94B7100E94CB
:1020F000E30FB8F39923C9F3B6F39F57550B87FF46
:102100000E94C5100024A0E640EA90018058569530
:10211000979528F4805C660F771F881F20F026179C
:102120003707480730F4621B730B840B20293129D1
:102130004A2BA69517940794202531254A2758F74E
:10214000660F771F881F20F026173707480730F4DF
:10215000620B730B840B200D311D411DA09581F77F
:10216000B901842F9158880F9695879508959F3FC0
:1021700031F0915020F4879577956795B795880F42
:10218000911D9695879597F9089591505040660F47
:10219000771F881FD2F70895283008F027E03327EB
:1021A000DA01990F311D87FD916000966105710577
:1021B00039F432602E5F3D9330E32A95E1F70895BC
:1021C0009F3F30F080387105610509F03C5F3C5F4E
:1021D0003D93913008F08068911DDF93CF931F935A
:1021E0000F93FF92EF92192F987F9695E92F96956E
:1021F0009695E90FFF27EA5AFE4F99273327EE24D9
:10220000FF24A701E70105900894079428F4360FEE
:10221000E71EF81E491F511D660F771F881F991F63
:102220000694A1F70590079428F4E70EF81E491FBD
:10223000561FC11D770F881F991F661F0694A1F7AF
:102240000590079428F4F80E491F561FC71FD11D8B
:10225000880F991F661F771F0694A1F705900794B2
:1022600020F4490F561FC71FD81F990F661F771FED
:10227000881F0694A9F784911095177041F0D695A0
:10228000C79557954795F794E7941A95C1F7ECEFE2
:10229000F0E06894159015913591659195910590B0
:1022A0007FE27395E118F10A430B560BC90BD00975
:1022B000C0F7E10CF11E431F561FC91FD01D7EF44D
:1022C000703311F48A95E6CFE894015030F0080F8E
:1022D0000AF40027021708F4202F2395022F7A33DF
:1022E00028F079E37D932A95E9F710C07D932A952C
:1022F00089F6069497956795379517951794E11881
:10230000F10A430B560BC90BD00998F023957E9127
:1023100073957A3308F070E37C932013B8F77E91BD
:1023200070617D9330F0839571E37D9370E32A951E
:10233000E1F71124EF90FF900F911F91CF91DF9162
:10234000992787FD90950895FC0105906150704094
:102350000110D8F7809590958E0F9F1F0895FC016E
:102360006150704001900110D8F7809590958E0FC4
:102370009F1F08950F931F93CF93DF93FB0123813A
:1023800021FD03C08FEF9FEF2CC022FF16C04681B6
:102390005781248135814217530744F4A081B181CC
:1023A0009D012F5F3F4F208331838C93268137819E
:1023B0002F5F3F4F2683378314C08B01EC01FB0155
:1023C0000084F185E02D0995892BE1F6D801169658
:1023D0008D919C911797019616968D939C931797C4
:1023E000CE01DF91CF911F910F910895FA01AA2795
:1023F000283051F1203181F1E8946F936E7F6E5F48
:102400007F4F8F4F9F4FAF4FB1E03ED0B4E03CD0F5
:10241000670F781F891F9A1FA11D680F791F8A1FD8
:10242000911DA11D6A0F711D811D911DA11D20D03F
:1024300009F468943F912AE0269F11243019305DF9
:102440003193DEF6CF010895462F4770405D4193EA
:10245000B3E00FD0C9F7F6CF462F4F70405D4A3337
:1024600018F0495D31FD4052419302D0A9F7EACFFF
:10247000B4E0A6959795879577956795BA95C9F72E
:1024800000976105710508959B01AC010A2E069421
:102490005795479537952795BA95C9F7620F731FDA
:1024A000841F951FA01D08950E9471126081718183
:1024B0008281938108950E94711280819181089593
:1024C000242F0E947612252F0E9476120C946812F7
:1024D0000E947512272F0C94761203D080819927C1
:1024E0000895FC01E050FC4E0895262FAF93BF9352
:1024F000E0E0F0E1328131FDFDCF3DE934BF33E171
:102500003083DC01A050BC4E2C933DE934BF20E069
:0E25100020830196BF91AF910895F894FFCFFC
:08251E000000C8410000C841A3
:02000004008278
:090000000000000000C00D00002A
:00000001FF
