:100000000C9483000C94FA0A0C94FA0A0C94FA0AE1
:100010000C94FA0A0C9436080C94FA0A0C94FA0A16
:100020000C94FA0A0C94FA0A0C94FA0A0C94FA0A40
:100030000C94FA0A0C94FA0A0C94FA0A0C94FA0A30
:100040000C94FA0A0C94FA0A0C94FA0A0C94FA0A20
:100050000C94FA0A0C94FA0A0C94FA0A0C94FA0A10
:100060000C94FA0A0C94FA0A0C94FA0A0C94FA0A00
:100070000C94FA0A0C94FA0A0C94FA0A0C94FA0AF0
:100080000C94FA0A0C94FA0A0C94FA0A0C94FA0AE0
:100090000C94FA0A0C94FA0A0C94FA0A0C94FA0AD0
:1000A0000C94FA0A0C94FA0A0C94FA0A0C94FA0AC0
:1000B0000C94FA0A0C94FA0A0C94FA0A0C94FA0AB0
:1000C0000C94FA0A0C94FA0A0C94FA0A0C94FA0AA0
:1000D0000C94FA0A0C946B080C94FA0A0C94FA0A21
:1000E0000C94FA0A0C94FA0A0C94FA0A0C94FA0A80
:1000F0000C94FA0A40004147804147414F001602E4
:10010000414F415D8000809101108F7C806080684C
:100110008093011011241FBECFEFCDBFDFE7DEBFFC
:10012000E4EFF0E041E019C0B791A7913791279132
:10013000079107FD0EC097918791EF01F92FE82FE6
:100140000BBF07900D92A217B307D9F7FE011BBE94
:1001500004C01D92A217B307E1F7E530F40721F7B9
:0C0160000E94B6000C94210AF894FFCF16
:10016C00CF93DF93CDB7DEB76E97CDBFDEBF93E0F5
:10017C009093500088E88093320438E03093210447
:10018C0081E08093650425E02093610444E0409372
:10019C00000910920109809302094DEF4093050963
:1001AC004FE040930609209303092CE020930104AF
:1001BC0030930B0420930C04109253411092544131
:1001CC0080936B0820E920936508909367082BE8CF
:1001DC0030E0209368083093690810926608809389
:1001EC0025048093210492E0909322049091660858
:1001FC0090649093660810925541109256418093EA
:10020C00450180934201109247018091410182FD8A
:10021C00FCCF8FE090E080934A0190934B0180914A
:10022C00410180FDFCCF89EB809340013299D8C20B
:10023C000E944F09882309F4D3C280E090E00E9409
:10024C00CE0A5C0182E090E00E94CE0A6C0184E050
:10025C0090E00E94CE0A7C0185010C251D25082703
:10026C0019278AE390E00E94CE0A8F87988B8F859E
:10027C0098890817190709F0B3C2EDE0F1E4808101
:10028C009181A816B90609F0ABC282819381C81678
:10029C00D90609F0A5C284819581E816F90609F002
:1002AC009FC286E090E00E94920AE7E3F1E40E948C
:1002BC00F40A8AE090E00E94920AA3E3B1E40E945F
:1002CC00720A8EE090E00E94920AEFE2F1E40E9442
:1002DC00F40A82E190E00E94920AABE3B1E40E943E
:1002EC00720A86E190E00E94920AE7E1F1E40E9432
:1002FC00F40A8AE190E00E94920AA3E1B1E40E9420
:10030C00720A8EE190E00E94920AEBE2F1E40E9404
:10031C00F40A82E290E00E94920AAFE1B1E40E94FA
:10032C00720A86E290E00E94920AE3E2F1E40E94F3
:10033C00F40A8AE290E00E94920AA3E4B1E40E94DB
:10034C00720A8EE290E00E94920AEFE3F1E40E94BE
:10035C00F40A82E390E00E94920AA7E2B1E40E94C0
:10036C00720A86E390E00E94920AEBE1F1E40E94AB
:10037C00F40A81E0809359417894B1E02B2EB1E4DA
:10038C003B2ECE010B96898B9A8B80915B418130F1
:10039C0061F140F0823009F497C0833009F4C6C192
:1003AC0083E0C2C180E380934F4111E01093504130
:1003BC0088E08093514182E0809352410E94A10ACF
:1003CC0079F084E7809307090E947009882341F033
:1003DC0084E00E94E80893E090930409811102C024
:1003EC0084E0A2C110935B41A1C18FE380934F4184
:1003FC008FEF809350410E94A10A09F497C184E7C2
:10040C00809307090E947009882309F48FC182E048
:10041C000E94E808811104C083E08093040986C11E
:10042C0062E081E591E40E94A807882309F47EC16B
:10043C0080915141909152410E94E40A80FF08C082
:10044C00892F992786958695A1E08A27817001C00E
:10045C0080E080FF6BC142E0BE01635F7F4F8FEF96
:10046C009FE30E949C08882309F4BACF8E858C7771
:10047C0090E0959587959595879580935A414CE09A
:10048C000E94E00A83E090E40E949C08882309F40F
:10049C00A7CF89819A810E94E40AF1010E94A209E6
:1004AC008F8198850E94E40A8683978389859A8533
:1004BC000E94E40A808791878B859C850E94E40AC0
:1004CC008287938782E030C188E0809327048091F3
:1004DC005A41823029F080915A41813009F080CF05
:1004EC00D1011A966D917C911B970E94A60A0E94CD
:1004FC00FB074B015C01F101648175810E94A60A26
:10050C000E94FB0720E030E040E451E40E94EC0A3A
:10051C006B017C01A3E4B1E40E94B50A0E94F00ACD
:10052C00A50194010E94570A9B01AC01C701B601B9
:10053C000E94EC0A0E94D80A59E40E94F00A6B8BC4
:10054C007C8B8D8B9E8B80915A41813021F4F101F3
:10055C000E94BA0A09C0D10116966D917C91179729
:10056C0018968D919C911997680F791F0E94A60A75
:10057C000E94FB070E94D80A5FE30E94F00A20E069
:10058C0030E040E451E40E94EC0A2B013C01EFE323
:10059C00F1E40E94BF0AC701B6010E94F00AA5014E
:1005AC0094010E94570A9B01AC01C301B2010E9445
:1005BC00EC0A0E94D80A59E40E94F00A2B013C0173
:1005CC00A7E3B1E40E94B50A6B897C898D899E8969
:1005DC000E94560A6B017C01E3E3F1E40E94BF0A1E
:1005EC000E94EC0AABE3B1E40E94B50A0E94570AE0
:1005FC004B015C010E94830A0E94F00AEFE2F1E4D5
:10060C000E94BF0A0E94F00A9B01AC01C501B40113
:10061C000E94570A4B015C01A7E4B1E40E94720AE4
:10062C0023E333E948E853E40E94570A6B017C0149
:10063C00A7E2B1E40E94B50AEBE2F1E40E94BA0A27
:10064C000E94F00A6B8B7C8B8D8B9E8BE3E2F1E42A
:10065C0080819181A281B3818F8B988FA98FBA8F62
:10066C0020E030E048EC51E4C501B4010E94560A88
:10067C00AFE1B1E40E94B50A0E94F00A4B015C01A3
:10068C000E94830A0E94F00AA70196010E94F00AB8
:10069C00A70196010E94F00A6B017C01EBE1F1E4E9
:1006AC0080819181A281B3818B8F9C8FAD8FBE8F06
:1006BC0013E060E070E088EC91E420E030E048EC7E
:1006CC0051E40E94560A2F89388D498D5A8D0E940B
:1006DC00F00A0E94880A0E94570AA50194010E9400
:1006EC00570A2B893C894D895E890E94F00A9B012F
:1006FC00AC01C301B2010E94EC0AA70196010E9451
:10070C00570A0E940F040E940F0423E333E948E8C0
:10071C0053E40E94560A2B8D3C8D4D8D5E8D0E94AC
:10072C00560A115051F667C080935B4180915C4131
:10073C00882309F453C010925C4126E636E646EE57
:10074C005FE3ABE4B1E46D917D918D919C910E943E
:10075C00F00A0E94D80A52E40E94570A7B018C01CD
:10076C0026E636E646EE5FE3E7E4F1E40E94BA0AD9
:10077C000E94F00A0E94D80A52E40E94570A2AEA00
:10078C0029836A837B838C839D83EE82FF82088717
:10079C00198785E58A878091640880648093640852
:1007AC008E010F5F1F4F8091640885FFFCCFD8012D
:1007BC008D918D010E94C409E989FA890E171F07D2
:1007CC0091F78091640885FFFCCF8091640886FFC7
:1007DC00FCCF8091024081110E940B098895D5CDE8
:1007EC000E944F09882389F00E940805882369F02C
:1007FC000E94E005C1CDEBE4F1E40E94F40A81E033
:10080C0080935C4110925B4191CF84E080935B417B
:02081C00B3CD5A
:10081E004F925F926F927F928F929F92AF92BF9202
:10082E00CF92DF92EF92FF920F931F936B017C0199
:10083E00DC01CB01B701A6014427552760787F77ED
:10084E004115510560487F4749F40E94830A0E9472
:10085E00F00AA70196010E94570A18C01816190629
:10086E001A061B06C4F0892B8A2B8B2B09F4B2C0F7
:10087E0081E290E080930040909301400E94830AB1
:10088E000E94560A9B01AC010E94EC0A562F472F7C
:10089E00382F292FA3C067E1F594E794D794C79416
:1008AE006A95D1F7C114D104E104F104D1F4C12C3D
:1008BE00D12C7601A7FD08C00E947E0A2FEFC21A26
:1008CE00D20AE20AF20AF6CF21E0C21AD108E108F2
:1008DE00F108F094E094D094C094C11CD11CE11C9A
:1008EE00F11C2FE7C21AD108E108F108AF77BB2738
:1008FE00A068C0FE02C00E947E0AF594E794D794C9
:10090E00C7940E947E0AE9E1F0E040E050E060E02A
:10091E0071E0812C912C540100E010E09801280127
:10092E003901440E551E661E771E84159505A605C3
:10093E00B70574F093018201040F151F261F371F90
:10094E0084199509A609B709840E951EA61EB71E11
:10095E000E947E0A76956795579547953197F9F6D9
:10096E00892B8A2B8B2B21F10E942C0A0E94560A6E
:10097E000E94880A0E94C90A87FD1AC00E942C0A8A
:10098E000E94570A0E94880A0E94C90A181634F457
:10099E0082E0880E911CA11CB11C0AC0D501C401B5
:1009AE0081709927AA27BB27880E991EAA1EBB1EE7
:1009BE00D501C401B595A79597958795B15C37E19B
:1009CE00CC0CDD1CEE1CFF1C3A95D1F7C80ED91EBF
:1009DE00EA1EFB1E5C2D4D2D3E2D2F2D652F742FE7
:1009EE00832F922F1F910F91FF90EF90DF90CF905A
:1009FE00BF90AF909F908F907F906F905F904F9031
:020A0E00089549
:100A10000F931F93CF93DF93CDB7DEB76897CDBF0A
:100A2000DEBF40E10E94E00A8CE094E20E949C0854
:100A3000811102C080E0BCC00E94160A0E94FB0720
:100A40000E94970A0E94F00AE7E3F1E40E94EF098E
:100A50000E94FB070E94DC0A55E30E94F00AE3E3D0
:100A6000F1E40E94FC090E94FB070E94DC0A59E2A3
:100A70000E94F00AEFE2F1E40E94090A0E94FB07DB
:100A80000E94970A0E94F00AEBE3F1E40E94F40A44
:100A900048E10E94E00A84E294E20E949C088823D4
:100AA00009F4C8CF0E94160A0E94FB070E94DC0AC4
:100AB00057E30E94F00AE7E1F1E40E94EF090E9487
:100AC000FB070E94970A0E94F00AE3E1F1E40E940A
:100AD000FC090E94FB070E94DC0A58E20E94F00A0F
:100AE000EBE2F1E40E94090A0E94FB070E94DC0A83
:100AF0005DE20E94F00AEFE1F1E40E94F40A2B8922
:100B00006C890E94350A2A890E94E80A89890E9414
:100B1000E1090E94FB070E94DC0A5DE20E94F00AE4
:100B2000E3E2F1E40E94F40A6D897E890E943E0AA4
:100B30000E94FB070E949C0A0E94F00AA3E4B1E411
:100B40000E94720A6F89788D0E943E0A0E94FB07FC
:100B50000E949C0A0E94F00AEFE3F1E40E94F40A6A
:100B600044E00E94E00A81E894E20E949C08882305
:100B700009F460CF69817A810E943E0A0E94FB07D6
:100B80000E94DC0A58E30E94F00AE7E2F1E40E94C6
:100B9000F40A6B817C810E943E0A0E94FB070E943E
:100BA0009C0A0E94F00AABE1B1E40E94720A81E063
:100BB0006896CDBFDEBFDF91CF911F910F91089551
:100BC000CF93DF93CDE0D1E46881798180E090E03C
:100BD0000E94D30A6A817B8182E090E00E94D30A5E
:100BE0006C817D8184E090E00E94D30AE7E3F1E428
:100BF0000E94AB0A86E090E00E944E0AA3E3B1E4B3
:100C00000E94B00A8AE090E00E944E0AEFE2F1E40E
:100C10000E94AB0A8EE090E00E944E0AABE3B1E482
:100C20000E94B00A82E190E00E944E0AE7E1F1E4FE
:100C30000E94AB0A86E190E00E944E0AA3E1B1E473
:100C40000E94B00A8AE190E00E944E0AEBE2F1E4D1
:100C50000E94AB0A8EE190E00E944E0AAFE1B1E43F
:100C60000E94B00A82E290E00E944E0AE3E2F1E4C0
:100C70000E94AB0A86E290E00E944E0AA3E4B1E42F
:100C80000E94B00A8AE290E00E944E0AEFE3F1E48B
:100C90000E94AB0A8EE290E00E944E0AA7E2B1E405
:100CA0000E94B00A82E390E00E944E0AEBE1F1E478
:100CB0000E94AB0A86E390E00E944E0A6881798127
:100CC0008A819B81682779278C819D816827792774
:0C0CD0008AE390E0DF91CF910C94D30AEE
:100CDC0010C00E94640A58F00E945D0A40F029F48A
:100CEC005F3F29F00C94780A51110C946C0A0C9407
:100CFC00F70A0E942D0968F39923B1F3552391F358
:100D0C00951B550BBB27AA2762177307840738F06E
:100D1C009F5F5F4F220F331F441FAA1FA9F333D0CD
:100D2C000E2E3AF0E0E830D091505040E695001C81
:100D3C00CAF729D0FE2F27D0660F771F881FBB1F3D
:100D4C00261737074807AB07B0E809F0BB0B802D17
:100D5C00BF01FF2793585F4F3AF09E3F510568F053
:100D6C000C94780A0C946C0A5F3FE4F3983ED4F32D
:100D7C0086950E948D0A9F5FD9F7880F911D9695D5
:100D8C00879597F90895E1E0660F771F881FBB1FC1
:100D9C00621773078407BA0720F0621B730B840B6E
:0A0DAC00BA0BEE1F88F7E0950895DA
:100DB6000FC00E945D0A38F00E94640A20F0952355
:100DC60011F00C94780A0C94F70A11240C946C0A0E
:100DD6000E942D0970F3959FC1F3950F50E0551FA2
:100DE600629FF001729FBB27F00DB11D639FAA277A
:100DF600F00DB11DAA1F649F6627B00DA11D661FC9
:100E0600829F2227B00DA11D621F739FB00DA11DE9
:100E1600621F839FA00D611D221F749F3327A00DA3
:100E2600611D231F849F600D211D822F762F6A2F3F
:100E360011249F5750409AF0E1F088234AF0EE0FB4
:100E4600FF1FBB1F661F771F881F91505040A9F7D1
:100E56009E3F510570F00C94780A0C946C0A5F3F23
:100E6600E4F3983ED4F386950E948D0AE7959F5F3A
:100E7600D1F7FE2B880F911D9695879597F90895C2
:100E860011C00E945D0A38F00E94640A20F039F40D
:100E96009F3F19F426F40C94F70A0EF4E095E7FB4D
:100EA6000C94780AE92F0E942D0958F3BA176207A5
:100EB60073078407950720F079F4A6F50C946B0A5E
:100EC6000EF4E0950B2EBA2FA02D0B01B90190015F
:100ED6000C01CA01A0011124FF27591B99F0593FA3
:100EE60050F4503E58F11A16F040A22F232F342FFB
:100EF6004427585FF3CF469537952795A795F04039
:100F06005395C9F77EF41F16BA0B620B730B840B4D
:100F1600AAF0915091F0FF0FBB1F661F771F881F25
:100F2600C2F70CC0BA0F621F731F841F38F487956F
:100F36000E948D0A9E3F08F0B2CF9395880F08F065
:0A0F46009927EE0F979587950895FF
:100F50001F93CF93DF93182FD92FC62F80910709A6
:100F600081608093070981E08093040980910509DD
:100F700085FD0BC08091050982FD07C080910509A0
:100F800083FD03C00E94A10A89F70E94D309882328
:100F900029F083E08093040980E027C080E28093F9
:100FA0000509E12FFD2F80E022E0C817D1F09091D4
:100FB000050995FD0DC09091050992FD09C090911C
:100FC000050993FD05C0909105099370933079F759
:100FD0009091080991938F5FC81739F32093040902
:100FE000E4CF87E08093040981E0DF91CF911F91E6
:020FF000089562
:100FF200E89409C097FB3EF49095809570956195B1
:101002007F4F8F4F9F4F9923A9F0F92F96E9BB2766
:101012009395F695879577956795B795F111F8CFE2
:10102200FAF4BB0F11F460FF1BC06F5F7F4F8F4F4D
:101032009F4F16C0882311F096E911C0772321F043
:101042009EE8872F762F05C0662371F096E8862FDB
:1010520070E060E02AF09A95660F771F881FDAF732
:0A106200880F9695879597F9089579
:10106C001F920F920FB60F9211240BB60F922F9363
:10107C003F934F935F936F937F938F939F93AF9314
:10108C00BF93EF93FF9381E080935841E0915541DA
:10109C00F0915641309709F0099580914301816098
:1010AC0080934301FF91EF91BF91AF919F918F91ED
:1010BC007F916F915F914F913F912F910F900BBE4C
:0A10CC000F900FBE0F901F901895B3
:1010D6001F920F920FB60F9211240BB60F922F93F9
:1010E6003F934F935F936F937F938F939F93AF93AA
:1010F600BF93EF93FF9380916008E0915341F09185
:101106005441309709F0099510925741FF91EF919C
:10111600BF91AF919F918F917F916F915F914F9109
:101126003F912F910F900BBE0F900FBE0F901F9007
:0211360018950A
:101138001F93CF93DF9390934F41809350410E9428
:10114800A10AC9F0142FEB0184E7809307090E94D4
:101158007009882381F082E00E94E808811104C0A8
:1011680083E08093040907C0612FCE01DF91CF91FE
:101178001F910C94A80780E0DF91CF911F910895EB
:10118800990F0008550FAA0BE0E8FEEF1616170690
:10119800E807F907C0F012161306E407F50798F0F8
:1011A800621B730B840B950B39F40A2661F0232B11
:1011B800242B252B21F408950A2609F4A140A6958D
:0811C8008FEF811D811D0895C8
:1011D000EFE4F1E490E09817D1F021912093080911
:1011E0002091050925FD0DC02091050922FD09C0AA
:1011F0002091050923FD05C02091050923702330A6
:1012000079F72091050924FD04C09F5FE4CF81E0B8
:06121000089580E008953E
:10121600CF9380916408806480936408C0E0EC2FCB
:10122600F0E0EE5FFF4B8081882351F0CF3F41F025
:101236009091640895FFFCCF0E94C409CF5FEFCF61
:101246008091640885FFFCCF8091640886FFFCCFFF
:04125600CF91089597
:10125A0057FD9058440F551F59F05F3F71F047955D
:10126A00880F97FB991F61F09F3F79F08795089542
:10127A00121613061406551FF2CF4695F1DF08C061
:10128A00161617061806991FF1CF8695710561057E
:04129A000894089517
:10129E00CF93DF93CDB7DEB72697CDBFDEBF46E047
:1012AE000E94E00A85E094E20E949C08882351F097
:1012BE00EDE0F1E489819A810E94E40A0E94A2097C
:1012CE0081E001C080E02696CDBFDEBFDF91CF91D9
:0212DE00089571
:1012E0008091050985FD0BC08091050982FD07C02D
:1012F0008091050983FD03C00E94A10A89F70E941D
:10130000D309882329F083E08093040980E00895BD
:0413100081E00895DB
:10131400262FAF93BF93E0E0F0E1328131FDFDCFA2
:101324003DE934BF33E13083DC01A050BC4E2C9343
:101334003DE934BF20E020830196BF91AF91089529
:10134400808391838B819C81982789279827828326
:1013540093838D819E8198278927982784839583F9
:021364000895EA
:10136600092E0394000C11F4882352F0BB0F40F4AD
:10137600BF2B11F460FF04C06F5F7F4F8F4F9F4FED
:021386000895C8
:101388009091640895FF09C09091640890649093C7
:0E13980064088093620881E0089580E0089563
:1013A600809105098C7141F490910509937081E053
:0C13B600933019F080E0089581E0089564
:1013C20090E0982F8827A0E0B0E08A019B01082BCB
:0C13D200192B2A2B3B2BC901B8010895F0
:1013DE000E94C40A2F8168850E94350A2E810E94C0
:0A13EE00E80A8D810E94E1090895CC
:1013F8000E94C40A2B856C850E94350A2A850E94A2
:0A140800E80A89850E94E1090895B1
:101412000E94C40A2F8568890E94350A2E850E947F
:0A142200E80A8D850E94E109089593
:10142C002B816C810E94350A2A810E94E80A8981ED
:06143C000E94E109089581
:10144200EC010E94FF0A0E94FE0ACE010E94000BDC
:06145200CE010E94FC0A1D
:1014580020E632E442EA5DE060E070E080E89FE385
:021468000895E5
:10146A00862F90E0A0E0B0E0DC0199278827B22B14
:02147A000895D3
:10147C00762767277627072E000C880B990B089583
:10148C0003D0808199270895FC01E050FC4E08950B
:10149C00242F0E948B09252F0E948B090C94D30AB0
:0E14AC005058BB27AA270E9443070C94B3098F
:0E14BA0000240A94161617061806090608954F
:0E14C80000240A941216130614060506089551
:0E14D600E894BB2766277727CB0197F9089586
:0C14E4006D937D938D939C931397089556
:0C14F00097F99F6780E870E060E00895C5
:0A14FC00880F991FAA1FBB1F089557
:0A150600A7019601C701B601089580
:0A15100020E030E040E85FE30895BA
:0A151A0077956795B795F79508954A
:0A1524000E944A0A0E94BA0A0895C4
:0A152E0020E030E040E85BE30895A0
:0A15380020E030E040E85AE3089597
:0A154200809105098370833008953D
:0A154C00072E000C880B990B089580
:0A1556004081518162817381089584
:0A1560004D915D916D917C9108950D
:0A156A002D913D914D915C91089583
:0A15740060817181828193810895E6
:0A157E0020813181428153810895DC
:0A15880060837183828393830895CA
:0A1592000E94C40808F48FEF0895CA
:0A159C000E944A0A8081918108959F
:0A15A6000E948A09272F0C948B097C
:0815B00020E030E040E0089566
:0815B80020E030E040E8089556
:0815C000BE016F5F7F4F08952B
:0815C800982789279827089550
:0815D000AC01BD01422B08959E
:0815D8000E946E060C94B30999
:0815E0000E94DB060C94B30924
:0615E8000E94C40A0895F0
:0615EE009FEF80EC089560
:0415F4000C94000053
:0415F8000E94B40099
:0215FC00089550
:0215FE0008954E
:0216000008954B
:041602000000C841DB
:041606000000C841D7
:02000004008278
:090000000000000000C00D00002A
:00000001FF
