:100000000C9483000C94020B0C94020B0C94020BC6
:100010000C94020B0C9446080C94020B0C94020BEB
:100020000C94020B0C94020B0C94020B0C94020B1C
:100030000C94020B0C94020B0C94020B0C94020B0C
:100040000C94020B0C94020B0C94020B0C94020BFC
:100050000C94020B0C94020B0C94020B0C94020BEC
:100060000C94020B0C94020B0C94020B0C94020BDC
:100070000C94020B0C94020B0C94020B0C94020BCC
:100080000C94020B0C94020B0C94020B0C94020BBC
:100090000C94020B0C94020B0C94020B0C94020BAC
:1000A0000C94020B0C94020B0C94020B0C94020B9C
:1000B0000C94020B0C94020B0C94020B0C94020B8C
:1000C0000C94020B0C94020B0C94020B0C94020B7C
:1000D0000C94020B0C947B080C94020B0C94020BF6
:1000E0000C94020B0C94020B0C94020B0C94020B5C
:1000F0000C94020B40004147804147414F001612CB
:10010000414F415D8000809101108F7C806080684C
:100110008093011011241FBECFEFCDBFDFE7DEBFFC
:10012000E4EFF0E041E019C0B791A7913791279132
:10013000079107FD0EC097918791EF01F92FE82FE6
:100140000BBF07900D92A217B307D9F7FE011BBE94
:1001500004C01D92A217B307E1F7E530F40721F7B9
:0C0160000E94B6000C942C0AF894FFCF0B
:10016C00CF93DF93CDB7DEB76E97CDBFDEBF93E0F5
:10017C009093500088E88093320438E03093210447
:10018C0081E08093650425E02093610444E0409372
:10019C00000910920109809302094DEF4093050963
:1001AC004FE040930609209303092CE020930104AF
:1001BC0030930B0420930C04109253411092544131
:1001CC0080936B0820E920936508909367082BE8CF
:1001DC0030E0209368083093690810926608809389
:1001EC0025048093210492E0909322049091660858
:1001FC0090649093660810925541109256418093EA
:10020C00450180934201109247018091410182FD8A
:10021C00FCCF80EF90E080934A0190934B0180914A
:10022C00410180FDFCCF89EB809340013299E8C2FB
:10023C000E94AC08882309F4E3C280E090E00E949D
:10024C00D60A5C0182E090E00E94D60A6C0184E040
:10025C0090E00E94D60A7C0185010C251D250827FB
:10026C0019278AE390E00E94D60A8F87988B8F8596
:10027C0098890817190709F0C3C2EDE0F1E48081F1
:10028C009181A816B90609F0BBC282819381C81668
:10029C00D90609F0B5C284819581E816F90609F0F2
:1002AC00AFC286E090E00E947D0AE7E3F1E40E9491
:1002BC00FC0A8AE090E00E947D0AA3E3B1E40E946C
:1002CC00840A8EE090E00E947D0AEFE2F1E40E9445
:1002DC00FC0A82E190E00E947D0AABE3B1E40E944B
:1002EC00840A86E190E00E947D0AE7E1F1E40E9435
:1002FC00FC0A8AE190E00E947D0AA3E1B1E40E942D
:10030C00840A8EE190E00E947D0AEBE2F1E40E9407
:10031C00FC0A82E290E00E947D0AAFE1B1E40E9407
:10032C00840A86E290E00E947D0AE3E2F1E40E94F6
:10033C00FC0A8AE290E00E947D0AA3E4B1E40E94E8
:10034C00840A8EE290E00E947D0AEFE3F1E40E94C1
:10035C00FC0A82E390E00E947D0AA7E2B1E40E94CD
:10036C00840A86E390E00E947D0AEBE1F1E40E94AE
:10037C00FC0A81E0809359417894A1E02A2EA1E4F3
:10038C003A2ECE010B96898B9A8B80915B418130F2
:10039C0061F140F0823009F4A2C0833009F4D4C179
:1003AC0083E0D0C180E380934F4111E01093504122
:1003BC0088E08093514182E0809352410E94AE0AC2
:1003CC0079F084E7809307090E948C09882341F017
:1003DC0084E00E94250993E090930409811102C0E6
:1003EC0084E0B0C110935B41AFC18FE380934F4168
:1003FC008FEF809350410E94AE0A09F4A5C184E7A7
:10040C00809307090E948C09882309F49DC182E01E
:10041C000E942509811104C083E08093040994C1D2
:10042C0062E081E591E40E94B807882309F48CC14D
:10043C0080915141909152419827892780FF84C126
:10044C0042E0BE01635F7F4F8FEF9FE30E94D908AC
:10045C00882331F28E858C7790E0959587959595CC
:10046C00879580935A414CE00E94E80A83E090E41F
:10047C000E94D908882309F4B3CF89819A810E94FC
:10048C00EC0AD1018D939C9311978B819C810E94D6
:10049C00EC0A12968D939C9313978D819E810E94EA
:1004AC00EC0A14968D939C9315978F8198850E94D6
:1004BC00EC0A16968D939C93179789859A850E94C2
:1004CC00EC0A18968D939C9319978B859C850E94AA
:1004DC00EC0A1A968D939C931B9782E033C188E0AB
:1004EC008093270480915A41823029F080915A419F
:1004FC00813009F075CFF101628573850E94B30AD2
:10050C000E940B084B015C01D10114966D917C91FA
:10051C0015970E94B30A0E940B0820E030E040E4DB
:10052C0051E40E94F40A6B017C01E3E4F1E40E94C3
:10053C00C20A0E94F80AA50194010E94620A9B015A
:10054C00AC01C701B6010E94F40A0E94E00A59E40A
:10055C000E94F80A6B8B7C8B8D8B9E8B80915A4101
:10056C00813049F4D1016D917C91119712968D9146
:10057C009C91139705C0F1016681778180859185E7
:10058C00680F791F0E94B30A0E940B080E94E00AB0
:10059C005FE30E94F80A20E030E040E451E40E945E
:1005AC00F40A2B013C01AFE3B1E40E94C70AC70176
:1005BC00B6010E94F80AA50194010E94620A9B01EF
:1005CC00AC01C301B2010E94F40A0E94E00A59E492
:1005DC000E94F80A2B013C01E7E3F1E40E94C20AF5
:1005EC006B897C898D899E890E94610A6B017C01D3
:1005FC00A3E3B1E40E94C70A0E94F40AEBE3F1E41E
:10060C000E94C20A0E94620A4B015C010E94950A78
:10061C000E94F80AAFE2B1E40E94C70A0E94F80AED
:10062C009B01AC01C501B4010E94620A4B015C0143
:10063C00A7E4B1E40E94840A23E333E948E853E4D5
:10064C000E94620A6B017C01E7E2F1E40E94C20A9B
:10065C00ABE2B1E46D917D918D919C910E94F80A71
:10066C006B8B7C8B8D8B9E8BE3E2F1E48081918193
:10067C00A281B3818F8B988FA98FBA8F20E030E045
:10068C0048EC51E4C501B4010E94610AAFE1B1E448
:10069C000E94C70A0E94F80A4B015C010E94950A4D
:1006AC000E94F80AA70196010E94F80AA701960178
:1006BC000E94F80A6B017C01EBE1F1E480819181ED
:1006CC00A281B3818B8F9C8FAD8FBE8F13E060E0C6
:1006DC0070E088EC91E420E030E048EC51E40E94BA
:1006EC00610A2F89388D498D5A8D0E94F80A0E9413
:1006FC009A0A0E94620AA50194010E94620A2B893F
:10070C003C894D895E890E94F80A9B01AC01C301AA
:10071C00B2010E94F40AA70196010E94620A0E948B
:10072C001F040E941F0423E333E948E853E40E94AA
:10073C00610A2B8D3C8D4D8D5E8D0E94610A11508E
:10074C0051F669C080935B4180915C41882309F428
:10075C0055C010925C4126E636E646EE5FE3ABE40C
:10076C00B1E46D917D918D919C910E94F80A0E944B
:10077C00E00A52E40E94620A7B018C0126E636E60E
:10078C0046EE5FE3E7E4F1E460817181828193815D
:10079C000E94F80A0E94E00A52E40E94620A2AEAC5
:1007AC0029836A837B838C839D83EE82FF820887F7
:1007BC00198785E58A878091640880648093640832
:1007CC008E010F5F1F4F8091640885FFFCCFD8010D
:1007DC008D918D010E94CF09E989FA890E171F07A7
:1007EC0091F78091640885FFFCCF8091640886FFA7
:1007FC00FCCF8091024081110E9448098895C5CD9B
:10080C000E94AC08882389F00E941805882369F09F
:10081C000E94F005B1CDEBE4F1E40E94FC0A81E00A
:10082C0080935C4110925B418FCF84E080935B415D
:02083C00A3CD4A
:10083E004F925F926F927F928F929F92AF92BF92E2
:10084E00CF92DF92EF92FF920F931F936B017C0179
:10085E00DC01CB01B701A6014427552760787F77CD
:10086E004115510560487F4749F40E94950A0E9440
:10087E00F80AA70196010E94620A18C018161906F6
:10088E001A061B06C4F0892B8A2B8B2B09F4B2C0D7
:10089E0081E290E080930040909301400E94950A7F
:1008AE000E94610A9B01AC010E94F40A562F472F49
:1008BE00382F292FA3C067E1F594E794D794C794F6
:1008CE006A95D1F7C114D104E104F104D1F4C12C1D
:1008DE00D12C7601A7FD08C00E94900A2FEFC21AF4
:1008EE00D20AE20AF20AF6CF21E0C21AD108E108D2
:1008FE00F108F094E094D094C094C11CD11CE11C7A
:10090E00F11C2FE7C21AD108E108F108AF77BB2717
:10091E00A068C0FE02C00E94900AF594E794D79496
:10092E00C7940E94900AE9E1F0E040E050E060E0F8
:10093E0071E0812C912C540100E010E09801280107
:10094E003901440E551E661E771E84159505A605A3
:10095E00B70574F093018201040F151F261F371F70
:10096E0084199509A609B709840E951EA61EB71EF1
:10097E000E94900A76956795579547953197F9F6A7
:10098E00892B8A2B8B2B21F10E94370A0E94610A38
:10099E000E949A0A0E94D10A87FD1AC00E94370A45
:1009AE000E94620A0E949A0A0E94D10A181634F412
:1009BE0082E0880E911CA11CB11C0AC0D501C40195
:1009CE0081709927AA27BB27880E991EAA1EBB1EC7
:1009DE00D501C401B595A79597958795B15C37E17B
:1009EE00CC0CDD1CEE1CFF1C3A95D1F7C80ED91E9F
:1009FE00EA1EFB1E5C2D4D2D3E2D2F2D652F742FC7
:100A0E00832F922F1F910F91FF90EF90DF90CF9039
:100A1E00BF90AF909F908F907F906F905F904F9010
:020A2E00089529
:100A30000F931F93CF93DF93CDB7DEB76897CDBFEA
:100A4000DEBF40E10E94E80A8CE094E20E94D908EF
:100A5000811102C080E0BCC00E94210A0E940B08E4
:100A60000E94A40A0E94F80AE7E3F1E40E94FA094E
:100A70000E940B080E94E40A55E30E94F80AE3E38F
:100A8000F1E40E94070A0E940B080E94E40A59E25E
:100A90000E94F80AEFE2F1E40E94140A0E940B0897
:100AA0000E94A40A0E94F80AEBE3F1E40E94FC0A07
:100AB00048E10E94E80A84E294E20E94D90888236F
:100AC00009F4C8CF0E94210A0E940B080E94E40A80
:100AD00057E30E94F80AE7E1F1E40E94FA090E9454
:100AE0000B080E94A40A0E94F80AE3E1F1E40E94C4
:100AF000070A0E940B080E94E40A58E20E94F80AC2
:100B0000EBE2F1E40E94140A0E940B080E94E40A3E
:100B10005DE20E94F80AEFE1F1E40E94FC0A2B89F1
:100B20006C890E94400A2A890E94F00A89890E94E1
:100B3000EC090E940B080E94E40A5DE20E94F80A98
:100B4000E3E2F1E40E94FC0A6D897E890E94490A71
:100B50000E940B080E94A90A0E94F80AA3E4B1E4CB
:100B60000E94840A6F89788D0E94490A0E940B08AE
:100B70000E94A90A0E94F80AEFE3F1E40E94FC0A2D
:100B800044E00E94E80A81E894E20E94D9088823A0
:100B900009F460CF69817A810E94490A0E940B089A
:100BA0000E94E40A58E30E94F80AE7E2F1E40E9496
:100BB000FC0A6B817C810E94490A0E940B080E94FA
:100BC000A90A0E94F80AABE1B1E40E94840A81E01C
:100BD0006896CDBFDEBFDF91CF911F910F91089531
:100BE000CF93DF93CDE0D1E46881798180E090E01C
:100BF0000E94DB0A6A817B8182E090E00E94DB0A2E
:100C00006C817D8184E090E00E94DB0AE7E3F1E4FF
:100C10000E94B80A86E090E00E94510AA3E3B1E482
:100C20000E94BD0A8AE090E00E94510AEFE2F1E4DE
:100C30000E94B80A8EE090E00E94510AABE3B1E452
:100C40000E94BD0A82E190E00E94510AE7E1F1E4CE
:100C50000E94B80A86E190E00E94510AA3E1B1E443
:100C60000E94BD0A8AE190E00E94510AEBE2F1E4A1
:100C70000E94B80A8EE190E00E94510AAFE1B1E40F
:100C80000E94BD0A82E290E00E94510AE3E2F1E490
:100C90000E94B80A86E290E00E94510AA3E4B1E4FF
:100CA0000E94BD0A8AE290E00E94510AEFE3F1E45B
:100CB0000E94B80A8EE290E00E94510AA7E2B1E4D5
:100CC0000E94BD0A82E390E00E94510AEBE1F1E448
:100CD0000E94B80A86E390E00E94510A68817981F7
:100CE0008A819B81682779278C819D816827792754
:0C0CF0008AE390E0DF91CF910C94DB0AC6
:100CFC0010C00E946F0A58F00E94680A40F029F454
:100D0C005F3F29F00C948A0A51110C94770A0C94C9
:100D1C00FF0A0E946A0968F39923B1F3552391F3F2
:100D2C00951B550BBB27AA2762177307840738F04E
:100D3C009F5F5F4F220F331F441FAA1FA9F333D0AD
:100D4C000E2E3AF0E0E830D091505040E695001C61
:100D5C00CAF729D0FE2F27D0660F771F881FBB1F1D
:100D6C00261737074807AB07B0E809F0BB0B802DF7
:100D7C00BF01FF2793585F4F3AF09E3F510568F033
:100D8C000C948A0A0C94770A5F3FE4F3983ED4F3F0
:100D9C0086950E949F0A9F5FD9F7880F911D9695A3
:100DAC00879597F90895E1E0660F771F881FBB1FA1
:100DBC00621773078407BA0720F0621B730B840B4E
:0A0DCC00BA0BEE1F88F7E0950895BA
:100DD6000FC00E94680A38F00E946F0A20F095231F
:100DE60011F00C948A0A0C94FF0A11240C94770AC9
:100DF6000E946A0970F3959FC1F3950F50E0551F45
:100E0600629FF001729FBB27F00DB11D639FAA2759
:100E1600F00DB11DAA1F649F6627B00DA11D661FA8
:100E2600829F2227B00DA11D621F739FB00DA11DC9
:100E3600621F839FA00D611D221F749F3327A00D83
:100E4600611D231F849F600D211D822F762F6A2F1F
:100E560011249F5750409AF0E1F088234AF0EE0F94
:100E6600FF1FBB1F661F771F881F91505040A9F7B1
:100E76009E3F510570F00C948A0A0C94770A5F3FE6
:100E8600E4F3983ED4F386950E949F0AE7959F5F08
:100E9600D1F7FE2B880F911D9695879597F90895A2
:100EA60011C00E94680A38F00E946F0A20F039F4D7
:100EB6009F3F19F426F40C94FF0A0EF4E095E7FB25
:100EC6000C948A0AE92F0E946A0958F3BA17620736
:100ED60073078407950720F079F4A6F50C94760A33
:100EE6000EF4E0950B2EBA2FA02D0B01B90190013F
:100EF6000C01CA01A0011124FF27591B99F0593F83
:100F060050F4503E58F11A16F040A22F232F342FDA
:100F16004427585FF3CF469537952795A795F04018
:100F26005395C9F77EF41F16BA0B620B730B840B2D
:100F3600AAF0915091F0FF0FBB1F661F771F881F05
:100F4600C2F70CC0BA0F621F731F841F38F487954F
:100F56000E949F0A9E3F08F0B2CF9395880F08F033
:0A0F66009927EE0F979587950895DF
:100F70001F93CF93DF93182FD92FC62F8091070986
:100F800081608093070981E08093040980910509BD
:100F900085FD0BC08091050982FD07C08091050980
:100FA00083FD03C00E94AE0A89F70E94DE098823F0
:100FB00029F083E08093040980E027C080E28093D9
:100FC0000509E12FFD2F80E022E0C817D1F09091B4
:100FD000050995FD0DC09091050992FD09C09091FC
:100FE000050993FD05C0909105099370933079F739
:100FF0009091080991938F5FC81739F320930409E2
:10100000E4CF87E08093040981E0DF91CF911F91C5
:02101000089541
:10101200E89409C097FB3EF4909580957095619590
:101022007F4F8F4F9F4F9923A9F0F92F96E9BB2746
:101032009395F695879577956795B795F111F8CFC2
:10104200FAF4BB0F11F460FF1BC06F5F7F4F8F4F2D
:101052009F4F16C0882311F096E911C0772321F023
:101062009EE8872F762F05C0662371F096E8862FBB
:1010720070E060E02AF09A95660F771F881FDAF712
:0A108200880F9695879597F9089559
:10108C001F920F920FB60F9211240BB60F922F9343
:10109C003F934F935F936F937F938F939F93AF93F4
:1010AC00BF93EF93FF9381E080935841E0915541BA
:1010BC00F0915641309709F0099580914301816078
:1010CC0080934301FF91EF91BF91AF919F918F91CD
:1010DC007F916F915F914F913F912F910F900BBE2C
:0A10EC000F900FBE0F901F90189593
:1010F6001F920F920FB60F9211240BB60F922F93D9
:101106003F934F935F936F937F938F939F93AF9389
:10111600BF93EF93FF9380916008E0915341F09164
:101126005441309709F0099510925741FF91EF917C
:10113600BF91AF919F918F917F916F915F914F91E9
:101146003F912F910F900BBE0F900FBE0F901F90E7
:021156001895EA
:10115800CF93DF93CDB7DEB72697CDBFDEBF46E08E
:101168000E94E80A85E094E20E94D9088823B1F039
:10117800EDE0F1E489819A810E94EC0A80839183F1
:101188008B819C810E94EC0A828393838D819E814E
:101198000E94EC0A8483958381E001C080E0269652
:0A11A800CDBFDEBFDF91CF910895A7
:1011B2001F93CF93DF9390934F41809350410E94AE
:1011C200AE0AC9F0142FEB0184E7809307090E944D
:1011D2008C09882381F082E00E942509811104C0D4
:1011E20083E08093040907C0612FCE01DF91CF9184
:1011F2001F910C94B80780E0DF91CF911F91089561
:10120200990F0008550FAA0BE0E8FEEF1616170615
:10121200E807F907C0F012161306E407F50798F07D
:10122200621B730B840B950B39F40A2661F0232B96
:10123200242B252B21F408950A2609F4A140A69512
:081242008FEF811D811D08954D
:10124A00EFE4F1E490E09817D1F021912093080996
:10125A002091050925FD0DC02091050922FD09C02F
:10126A002091050923FD05C020910509237023302B
:10127A0079F72091050924FD04C09F5FE4CF81E03E
:06128A00089580E00895C4
:10129000CF9380916408806480936408C0E0EC2F51
:1012A000F0E0EE5FFF4B8081882351F0CF3F41F0AB
:1012B0009091640895FFFCCF0E94CF09CF5FEFCFDC
:1012C0008091640885FFFCCF8091640886FFFCCF85
:0412D000CF9108951D
:1012D40057FD9058440F551F59F05F3F71F04795E3
:1012E400880F97FB991F61F09F3F79F087950895C8
:1012F400121613061406551FF2CF4695F1DF08C0E7
:10130400161617061806991FF1CF86957105610503
:04131400089408959C
:101318008091050985FD0BC08091050982FD07C0F4
:101328008091050983FD03C00E94AE0A89F70E94D7
:10133800DE09882329F083E08093040980E008957A
:0413480081E00895A3
:10134C00262FAF93BF93E0E0F0E1328131FDFDCF6A
:10135C003DE934BF33E13083DC01A050BC4E2C930B
:10136C003DE934BF20E020830196BF91AF910895F1
:10137C00092E0394000C11F4882352F0BB0F40F497
:10138C00BF2B11F460FF04C06F5F7F4F8F4F9F4FD7
:02139C000895B2
:10139E009091640895FF09C09091640890649093B1
:0E13AE0064088093620881E0089580E008954D
:1013BC00809105098C7141F490910509937081E03D
:0C13CC00933019F080E0089581E008954E
:1013D80090E0982F8827A0E0B0E08A019B01082BB5
:0C13E800192B2A2B3B2BC901B8010895DA
:1013F4000E94CC0A2F8168850E94400A2E810E9497
:0A140400F00A8D810E94EC090895A2
:10140E000E94CC0A2B856C850E94400A2A850E9478
:0A141E00F00A89850E94EC09089588
:101428000E94CC0A2F8568890E94400A2E850E9456
:0A143800F00A8D850E94EC0908956A
:101442002B816C810E94400A2A810E94F00A8981C4
:061452000E94EC09089560
:10145800EC010E94070B0E94060BCE010E94080BAC
:06146800CE010E94040BFE
:10146E0020E632E442EA5DE060E070E080E89FE36F
:02147E000895CF
:10148000862F90E0A0E0B0E0DC0199278827B22BFE
:021490000895BD
:10149200762767277627072E000C880B990B08956D
:1014A200242F0E94A709252F0E94A7090C94DB0A6A
:1014B20003D0808199270895FC01E050FC4E0895E5
:0E14C2005058BB27AA270E9453070C94BE095E
:0E14D00000240A941616170618060906089539
:0E14DE0000240A94121613061406050608953B
:0E14EC00E894BB2766277727CB0197F9089570
:0E14FA000E945D0A6081718182819381089554
:0C1508006D937D938D939C931397089531
:0C15140097F99F6780E870E060E00895A0
:0A152000880F991FAA1FBB1F089532
:0A152A00A7019601C701B60108955C
:0A15340020E030E040E85FE3089596
:0A153E0077956795B795F795089526
:0A15480020E030E040E85BE3089586
:0A15520020E030E040E85AE308957D
:0A155C008091050983708330089523
:0A156600072E000C880B990B089566
:0A157000408151816281738108956A
:0A157A004D915D916D917C910895F3
:0A15840020813181428153810895D6
:0A158E002D913D914D915C9108955F
:0A15980060837183828393830895BA
:0A15A2000E94010908F48FEF08957C
:0A15AC000E945D0A8081918108957C
:0A15B6000E94A609272F0C94A70934
:0815C00020E030E040E0089556
:0815C80020E030E040E8089546
:0815D000BE016F5F7F4F08951B
:0815D800982789279827089540
:0815E000AC01BD01422B08958E
:0815E8000E947E060C94BE096E
:0815F0000E94EB060C94BE09F9
:0615F8000E94CC0A0895D8
:0615FE009FEF80EC089550
:041604000C94000042
:041608000E94B40088
:02160C0008953F
:02160E0008953D
:0216100008953B
:041612000000C841CB
:041616000000C841C7
:02000004008278
:090000000000000000C00D00002A
:00000001FF
