:100000000C9483000C94F90D0C94F90D0C94F90DDB
:100010000C94F90D0C94930A0C94F90D0C94F90DB1
:100020000C94F90D0C94F90D0C94F90D0C94F90D38
:100030000C94F90D0C94F90D0C94F90D0C94F90D28
:100040000C94F90D0C94F90D0C94F90D0C94F90D18
:100050000C94F90D0C94F90D0C94F90D0C94F90D08
:100060000C94F90D0C94F90D0C94F90D0C94F90DF8
:100070000C94F90D0C94F90D0C94F90D0C94F90DE8
:100080000C94F90D0C94F90D0C94F90D0C94F90DD8
:100090000C94F90D0C94F90D0C94F90D0C94F90DC8
:1000A0000C94F90D0C94F90D0C94F90D0C94F90DB8
:1000B0000C94F90D0C94F90D0C94F90D0C94F90DA8
:1000C0000C94F90D0C94F90D0C94F90D0C94F90D98
:1000D0000C94F90D0C94FA0A0C94F90D0C94F90D8A
:1000E0000C94F90D0C94F90D0C94F90D0C94F90D78
:1000F0000C94F90D40004115804115411D001C0074
:10010000411D415D8000809101108F7C806080687E
:100110008093011011241FBECFEFCDBFDFE7DEBFFC
:10012000E4EFF0E041E019C0B791A7913791279132
:10013000079107FD0EC097918791EF01F92FE82FE6
:100140000BBF07900D92A217B307D9F7FE011BBE94
:1001500004C01D92A217B307E1F7E530F40721F7B9
:0C0160000E94A70C0C944D0DF894FFCFEA
:10016C00AF92BF92CF92DF92FF920F931F93CF93D8
:10017C00DF93CDB7DEB76897CDBFDEBF8FE091E4DC
:10018C000E94190A182F81110EC0812F6896CDBFBD
:10019C00DEBFDF91CF911F910F91FF90DF90CF9039
:1001AC00BF90AF90089534E2F32EF0921D418CE095
:1001BC0080931E4100E19E012F5F3F4F42E06DE1B5
:1001CC0071E48AE30E943409882309F4E0C12B818D
:1001DC006C81862F90E0A0E0B0E0DC0199278827A5
:1001EC00B22B2A81AC01BD01422B898190E0982F62
:1001FC008827A0E0B0E05A016B01A82AB92ACA2AC4
:10020C00DB2AC601B5010E94580A20E030E040E824
:10021C005BE30E94EC0D60935141709352418093CB
:10022C005341909354412F816885862F90E0A0E034
:10023C00B0E0DC0199278827B22B2E81AC01BD01DF
:10024C00422B8D8190E0982F8827A0E0B0E05A01D6
:10025C006B01A82AB92ACA2ADB2AC601B5010E9459
:10026C00580A20E030E040E855E30E94EC0D609322
:10027C004D4170934E4180934F41909350412B854B
:10028C006C85862F90E0A0E0B0E0DC0199278827F0
:10029C00B22B2A85AC01BD01422B898590E0982FA9
:1002AC008827A0E0B0E05A016B01A82AB92ACA2A13
:1002BC00DB2AC601B5010E94580A20E030E040E874
:1002CC0059E20E94EC0D6093494170934A4180932E
:1002DC004B4190934C412F856889862F90E0A0E08C
:1002EC00B0E0DC0199278827B22B2E85AC01BD012B
:1002FC00422B8D8590E0982F8827A0E0B0E05A0122
:10030C006B01A82AB92ACA2ADB2AC601B5010E94A8
:10031C00580A20E030E040E85BE30E94EC0D60936B
:10032C004541709346418093474190934841F092E8
:10033C001D41F0921E4108E19E012F5F3F4F42E0AC
:10034C006DE171E48AE30E943409882309F41FC12A
:10035C002B816C81862F90E0A0E0B0E0DC01992726
:10036C008827B22B2A81AC01BD01422B898190E0F8
:10037C00982F8827A0E0B0E05A016B01A82AB92A6F
:10038C00CA2ADB2AC601B5010E94580A20E030E0D7
:10039C0040E857E30E94EC0D609341417093424159
:1003AC0080934341909344412F816885862F90E040
:1003BC00A0E0B0E0DC0199278827B22B2E81AC019C
:1003CC00BD01422B8D8190E0982F8827A0E0B0E0F2
:1003DC005A016B01A82AB92ACA2ADB2AC601B5011F
:1003EC000E94580A20E030E040E85BE30E94EC0DEC
:1003FC0060933D4170933E4180933F4190934041C7
:10040C002B856C85862F90E0A0E0B0E0DC0199276D
:10041C008827B22B2A85AC01BD01422B898590E03F
:10042C00982F8827A0E0B0E05A016B01A82AB92ABE
:10043C00CA2ADB2AC601B5010E94580A20E030E026
:10044C0040E858E20E94EC0D6093394170933A41B8
:10045C0080933B4190933C412F856889862F90E097
:10046C00A0E0B0E0DC0199278827B22B2E85AC01E7
:10047C00BD01422B8D8590E0982F8827A0E0B0E03D
:10048C005A016B01A82AB92ACA2ADB2AC601B5016E
:10049C000E94580A20E030E040E85DE20E94EC0D3A
:1004AC006093354170933641809337419093384136
:1004BC002B896C89862F90E0A0E0B0E0DC019927B5
:1004CC008827B22B2A89AC01BD01422B898990E087
:1004DC00982F8827A0E0B0E05A016B01A82AB92A0E
:1004EC00CA2ADB2AC601B5010E94580A20E030E076
:1004FC0040E85DE20E94EC0D609331417093324113
:10050C0080933341909334416D897E897627672798
:10051C007627072E000C880B990B0E94580A20E0B6
:10052C0030E040E85AE30E94EC0D60932D4170934B
:10053C002E4180932F41909330416F89788D76278F
:10054C0067277627072E000C880B990B0E94580AF8
:10055C0020E030E040E85AE30E94EC0D6093294122
:10056C0070932A4180932B4190932C41F0921D4122
:10057C0081E880931E4104E09E012F5F3F4F42E0D3
:10058C006DE171E48AE30E943409811102C010E02C
:10059C00FCCD69817A81762767277627072E000C98
:1005AC00880B990B0E94580A20E030E040E858E391
:1005BC000E94EC0D60932541709326418093274156
:1005CC00909328416B817C81762767277627072EAD
:1005DC00000C880B990B0E94580A20E030E040E890
:1005EC005AE30E94EC0D6093214170932241809359
:0805FC00234190932441C9CD75
:100604004F925F926F927F928F929F92AF92BF921E
:10061400CF92DF92EF92FF92CF93DF93CDB7DEB705
:100624002D97CDBFDEBF809159418230B9F08091C2
:100634005941813099F080E02D96CDBFDEBFDF9126
:10064400CF91FF90EF90DF90CF90BF90AF909F90AD
:100654008F907F906F905F904F90089560910D41BF
:1006640070910E41072E000C880B990B0E94580ABA
:100674004B015C016091074170910841072E000C09
:10068400880B990B0E94580A20E030E040E451E4C2
:100694000E94E80D6B017C0120912D4130912E4187
:1006A40040912F41509130410E94EC0DA5019401DD
:1006B4000E949B0D9B01AC01C701B6010E94E80D8D
:1006C40020E030E040E059E40E94EC0D69837A8335
:1006D4008B839C8380915941813009F432C16091AC
:1006E400094170910A4180910B4190910C41680F2E
:1006F400791F072E000C880B990B0E94580A20E0E2
:1007040030E040E05FE30E94EC0D20E030E040E4A4
:1007140051E40E94E80D2B013C01209129413091C4
:100724002A4140912B4150912C41C701B6010E94AE
:10073400EC0DA50194010E949B0D9B01AC01C3012A
:10074400B2010E94E80D20E030E040E059E40E944C
:10075400EC0D2B013C0120915141309152414091CB
:1007640053415091544169817A818B819C810E94CB
:100774009A0D6B017C0120914D4130914E41409185
:100784004F41509150410E94E80D209145413091D4
:10079400464140914741509148410E949B0D4B0175
:1007A4005C01A7019601C701B6010E94EC0D2091DE
:1007B400494130914A4140914B4150914C410E94F2
:1007C400EC0D9B01AC01C501B4010E949B0D4B01D2
:1007D4005C01609315417093164180931741909387
:1007E400184123E333E948E853E40E949B0D6B016D
:1007F4007C0120912541309126414091274150911F
:1008040028416091394170913A4180913B419091E6
:100814003C410E94EC0D69837A838B839C83809195
:10082400314190913241A0913341B09134418D8353
:100834009E83AF83B88720E030E048EC51E4C501E3
:10084400B4010E949A0D2091354130913641409176
:100854003741509138410E94EC0D4B015C01A701D6
:100864009601C701B6010E94EC0DA70196010E94F2
:10087400EC0DA70196010E94EC0D6B017C018091A7
:10088400214190912241A0912341B0912441898733
:100894009A87AB87BC8793E09D87B0E0A0E0F8EC33
:1008A400E1E420E030E048EC51E46B2F7A2F8F2F05
:1008B4009E2F0E949A0D2D813E814F8158850E9462
:1008C400EC0D20E030E040E85FE30E949B0DA501C1
:1008D40094010E949B0D29813A814B815C810E9485
:1008E400EC0D9B01AC01C301B2010E94E80DA7010C
:1008F40096010E949B0D0E94AC040E94AC0423E369
:1009040033E948E853E40E949A0D29853A854B85DA
:100914005C850E949A0DAD85A150AD87AA2329F06C
:10092400B62FA72FF82FE92FBCCF6B017C01C09203
:100934001941D0921A41E0921B41F0921C4181E08E
:100944007BCE609103417091044180910541909167
:040954000641CDCEBD
:100958004F925F926F927F928F929F92AF92BF92C7
:10096800CF92DF92EF92FF920F931F936B017C015E
:10097800DC01CB01B701A6014427552760787F77B2
:100988004115510560487F4759F4A7019601C701F1
:10099800B6010E94EC0DA70196010E949B0D1AC09A
:1009A800181619061A061B06D4F0892B8A2B8B2BCE
:1009B80009F4CCC081E290E0809302409093034018
:1009C800A7019601C701B6010E949A0D9B01AC01CF
:1009D8000E94E80D562F472F382F292FBBC067E1FB
:1009E800F594E794D794C7946A95D1F7C114D104C4
:1009F800E104F104E1F4C12CD12C7601A7FD0AC071
:100A0800880F991FAA1FBB1F2FEFC21AD20AE20A2A
:100A1800F20AF4CF21E0C21AD108E108F108F094F3
:100A2800E094D094C094C11CD11CE11CF11C2FE7A8
:100A3800C21AD108E108F108AF77BB27A068C0FE49
:100A480004C0880F991FAA1FBB1FF594E794D79479
:100A5800C794880F991FAA1FBB1FE9E1F0E040E087
:100A680050E060E071E0812C912C540100E010E02E
:100A7800980128013901440E551E661E771E8415FB
:100A88009505A605B70574F093018201040F151F9B
:100A9800261F371F84199509A609B709840E951EC4
:100AA800A61EB71E880F991FAA1FBB1F76956795AC
:100AB800579547953197E9F6892B8A2B8B2BA1F10E
:100AC80020E632E442EA5DE060E070E080E89FE31F
:100AD8000E949A0D20E030E040E85FE30E94D50DC7
:100AE80087FD22C020E632E442EA5DE060E070E083
:100AF80080E89FE30E949B0D20E030E040E85FE340
:100B08000E94D50D181634F482E0880E911CA11CA1
:100B1800B11C0AC0D501C40181709927AA27BB2737
:100B2800880E991EAA1EBB1ED501C401B595A795AE
:100B380097958795B15C37E1CC0CDD1CEE1CFF1C4A
:100B48003A95D1F7C80ED91EEA1EFB1E5C2D4D2D15
:100B58003E2D2F2D652F742F832F922F1F910F91CC
:100B6800FF90EF90DF90CF90BF90AF909F908F90C5
:0A0B78007F906F905F904F900895FA
:100B82008F929F92AF92BF92CF92DF92EF92FF929B
:100B92001F93CF93DF9300D0CDB7DEB78FE091E400
:100BA2000E94190A182F8823F9F080E090E00E9431
:100BB200DA0D6C0182E090E00E94DA0D5C0184E0C3
:100BC20090E00E94DA0D4C017601EA24FB24E8262B
:100BD200F9268AE390E00E94DA0D89839A8389815B
:100BE2009A81E816F90681F010E0812F0F900F909C
:100BF200DF91CF911F91FF90EF90DF90CF90BF9048
:100C0200AF909F908F90089580910F4190911041E5
:100C1200C816D90649F78091114190911241A81640
:100C2200B90611F7809113419091144188169906E3
:100C3200D9F686E090E00E94B60D60935141709320
:100C4200524180935341909354418AE090E00E9434
:100C5200B60D60934D4170934E4180934F419093F6
:100C620050418EE090E00E94B60D6093494170932E
:100C72004A4180934B4190934C4182E190E00E9423
:100C8200B60D6093454170934641809347419093DE
:100C9200484186E190E00E94B60D60934141709315
:100CA200424180934341909344418AE190E00E9403
:100CB200B60D60933D4170933E4180933F419093C6
:100CC20040418EE190E00E94B60D609339417093ED
:100CD2003A4180933B4190933C4182E290E00E94F2
:100CE200B60D6093354170933641809337419093AE
:100CF200384186E290E00E94B60D609331417093D4
:100D0200324180933341909334418AE290E00E94D1
:100D1200B60D60932D4170932E4180932F41909395
:100D220030418EE290E00E94B60D609329417093AB
:100D32002A4180932B4190932C4182E390E00E94C0
:100D4200B60D60932541709326418093274190937D
:100D5200284186E390E00E94B60D60932141709392
:0C0D6200224180932341909324413FCF15
:100D6E00CF93DF93CFE0D1E46881798180E090E08A
:100D7E000E94DF0D6A817B8182E090E00E94DF0D90
:100D8E006C817D8184E090E00E94DF0D40915141A5
:100D9E0050915241609153417091544186E090E0E0
:100DAE000E948A0D40914D4150914E4160914F41AC
:100DBE00709150418AE090E00E948A0D4091494125
:100DCE0050914A4160914B4170914C418EE090E0C0
:100DDE000E948A0D40914541509146416091474194
:100DEE007091484182E190E00E948A0D409141410C
:100DFE0050914241609143417091444186E190E0AF
:100E0E000E948A0D40913D4150913E4160913F417B
:100E1E00709140418AE190E00E948A0D40913941E3
:100E2E0050913A4160913B4170913C418EE190E08E
:100E3E000E948A0D40913541509136416091374163
:100E4E007091384182E290E00E948A0D40913141CA
:100E5E0050913241609133417091344186E290E07D
:100E6E000E948A0D40912D4150912E4160912F414B
:100E7E00709130418AE290E00E948A0D40912941A2
:100E8E0050912A4160912B4170912C418EE290E05D
:100E9E000E948A0D40912541509126416091274133
:100EAE007091284182E390E00E948A0D4091214189
:100EBE0050912241609123417091244186E390E04C
:100ECE000E948A0D688179818A819B8168277927A2
:100EDE008C819D81682779278AE390E0DF91CF91FD
:040EEE000C94DF0D74
:100EF2000F93CF93DF93CDB7DEB72E97CDBFDEBF73
:100F02008FE380931D418FEF80931E4102E09E018B
:100F1200235F3F4F42E06DE171E48AE30E943409AE
:100F22008823D9F08E858C7790E095958795959555
:100F320087958093594180E480931D4183E080939B
:100F42001E410CE09E012F5F3F4F42E06DE171E4D4
:100F52008AE30E943409811108C080E02E96CDBF39
:100F6200DEBFDF91CF910F91089589819A819827F1
:100F72008927982780930341909304418B819C8118
:100F820098278927982780930541909306418D8160
:100F92009E8198278927982780930741909308413B
:100FA2008F81988598278927982780930941909364
:100FB2000A4189859A8598278927982780930B412A
:100FC20090930C418B859C8598278927982780933D
:100FD2000D4190930E4181E02E96CDBFDEBFDF9191
:060FE200CF910F9108956C
:100FE80010C00E94A80D58F00E94A10D40F029F4ED
:100FF8005F3F29F00C94CF0D51110C94B00D0C9457
:10100800F60D0E94150C68F39923B1F3552391F35B
:10101800951B550BBB27AA2762177307840738F05F
:101028009F5F5F4F220F331F441FAA1FA9F335D0BC
:101038000E2E3AF0E0E832D091505040E695001C70
:10104800CAF72BD0FE2F29D0660F771F881FBB1F2A
:10105800261737074807AB07B0E809F0BB0B802D08
:10106800BF01FF2793585F4F3AF09E3F510578F034
:101078000C94CF0D0C94B00D5F3FE4F3983ED4F37D
:10108800869577956795B795F7959F5FC9F7880F08
:10109800911D9695879597F90895E1E0660F771F5A
:1010A800881FBB1F621773078407BA0720F0621BEB
:0E10B800730B840BBA0BEE1F88F7E0950895BA
:1010C6000FC00E94A10D38F00E94A80D20F09523B4
:1010D60011F00C94CF0D0C94F60D11240C94B00D58
:1010E6000E94150C70F3959FC1F3950F50E0551FA4
:1010F600629FF001729FBB27F00DB11D639FAA2767
:10110600F00DB11DAA1F649F6627B00DA11D661FB5
:10111600829F2227B00DA11D621F739FB00DA11DD6
:10112600621F839FA00D611D221F749F3327A00D90
:10113600611D231F849F600D211D822F762F6A2F2C
:1011460011249F5750409AF0F1F088234AF0EE0F91
:10115600FF1FBB1F661F771F881F91505040A9F7BE
:101166009E3F510580F00C94CF0D0C94B00D5F3F5F
:10117600E4F3983ED4F3869577956795B795F795FA
:10118600E7959F5FC1F7FE2B880F911D9695879572
:0411960097F9089528
:10119A0011C00E94A10D38F00E94A80D20F039F468
:1011AA009F3F19F426F40C94F60D0EF4E095E7FB34
:1011BA000C94CF0DE92F0E94150C58F3BA17620749
:1011CA0073078407950720F079F4A6F50C94AF0D00
:1011DA000EF4E0950B2EBA2FA02D0B01B901900148
:1011EA000C01CA01A0011124FF27591B99F0593F8C
:1011FA0050F4503E68F11A16F040A22F232F342FD4
:10120A004427585FF3CF469537952795A795F04021
:10121A005395C9F77EF41F16BA0B620B730B840B36
:10122A00BAF09150A1F0FF0FBB1F661F771F881FEE
:10123A00C2F70EC0BA0F621F731F841F48F4879546
:10124A0077956795B795F7959E3F08F0B0CF939538
:0E125A00880F08F09927EE0F97958795089555
:10126800EF92FF920F931F93CF93DF93909105090D
:1012780093709330A1F1E901142F7B0190E0880F5E
:10128800991F809307090E94370C882341F1612F29
:10129800C7010E94570B182F882351F18091070925
:1012A80081608093070981E0809304090DC08091D3
:1012B800050982FD0DC08091050983FD09C0809153
:1012C80005098370833021F08091050985FFEFCFF0
:1012D800809105098C71B9F083E08093040910E0CE
:1012E800812FDF91CF911F910F91FF90EF9008957B
:1012F80083E080930409812FDF91CF911F910F9193
:10130800FF90EF9008950E947A0D8111E5CF602F2C
:08131800CE010E94810BE4CF1D
:10132000CF92DF92FF920F931F93CF93DF93CDB7AE
:10133000DEB72A97CDBFDEBFEAEAE9836A837B8303
:101340008C839D832E833F834887598785E58A87D1
:10135000809164088064809364088E010E5F1F4F43
:101360006E018BE0C80ED11C8AEAF82E0E94C30DD4
:101370008823E1F38F2D0E940A0D0C151D0521F025
:10138000F801F1908F01F2CF0E94C30D8823E1F3A1
:101390000E94720D8111FCCF2A96CDBFDEBFDF9176
:0E13A000CF911F910F91FF90DF90CF90089595
:1013AE008F929F92AF92BF92CF92DF92EF92FF9267
:1013BE0010925B410E94580D4B015C010E94610D21
:1013CE006B017C0126E636E646EE5FE3C501B4010D
:1013DE000E94EC0D4B015C0126E636E646EE5FE31D
:1013EE00C701B6010E94EC0D20E030E040E052E46F
:1013FE000E949B0D6B017C0120E030E040E052E446
:10140E00C501B4010E949B0DA70196010E9490098F
:10141E00FF90EF90DF90CF90BF90AF909F908F9006
:04142E000C942B0BE4
:10143200EF92FF920F93CF93DF93CDB7DEB726974C
:10144200CDBFDEBF7C0184E280931D4185E08093A5
:101452001E4106E09E012F5F3F4F42E06DE171E4C5
:101462008AE30E9434098823B9F089819A819827F6
:1014720089279827F701808391838B819C81982704
:1014820089279827828393838D819E819827892734
:1014920098278483958381E02696CDBFDEBFDF91B6
:0A14A200CF910F91FF90EF90089595
:1014AC00E89409C097FB3EF49095809570956195F2
:1014BC007F4F8F4F9F4F9923A9F0F92F96E9BB27A8
:1014CC009395F695879577956795B795F111F8CF24
:1014DC00FAF4BB0F11F460FF1BC06F5F7F4F8F4F8F
:1014EC009F4F16C0882311F096E911C0772321F085
:1014FC009EE8872F762F05C0662371F096E8862F1D
:10150C0070E060E02AF09A95660F771F881FDAF773
:0A151C00880F9695879597F90895BA
:101526001F920F920FB60F9211240BB60F922F93A4
:101536003F934F935F936F937F938F939F93AF9355
:10154600BF93EF93FF9381E080935841E091004071
:10155600F0910140309709F009958091430181602F
:1015660080934301FF91EF91BF91AF919F918F912E
:101576007F916F915F914F913F912F910F900BBE8D
:0A1586000F900FBE0F901F901895F4
:1015900080915C418130F1F0A8F0823031F08330ED
:1015A00019F083E080935C41089588E080932704DC
:1015B0000E940203882351F081E080935B411092E6
:1015C0005C4108950E94C90D811110C084E0809390
:1015D0005C4108950E94BD0C882331F30E94790775
:1015E0008823A1F382E080935C41089581E0809399
:0415F0005C410895BD
:1015F4001F920F920FB60F9211240BB60F922F93D6
:101604003F934F935F936F937F938F939F93AF9386
:10161400BF93EF93FF9380916008E0915541F0915F
:101624005641309709F0099510925741FF91EF9177
:10163400BF91AF919F918F917F916F915F914F91E6
:101644003F912F910F900BBE0F900FBE0F901F90E4
:021654001895E7
:101656001F93CF93DF9380910440882309F18091F3
:10166600640880648093640810E0C4E0D0E40E94BB
:10167600C30D8823E1F388810E940A0D1F5FC12FE5
:10168600D0E0CC5FDF4B8881882311F01F3F79F7CC
:101696000E94C30D8823E1F30E94720D8111FCCFD5
:0816A600DF91CF911F9108951F
:1016AE00662321F1FC016150262F30E02F5F3F4F62
:1016BE00280F391F8191809308090DC0809105096B
:1016CE0082FD0DC08091050983FD09C08091050939
:1016DE008370833021F08091050985FFEFCF8091D3
:1016EE00050984FD05C0E217F30721F781E008958F
:0416FE0080E00895EB
:1017020020E2209305096623F1F0FC0190E022E03B
:101712000DC08091050982FD0DC08091050983FDF0
:1017220009C0809105098370833021F080910509F9
:1017320085FFEFCF8091080981939F5F691719F0A8
:0E17420020930409F3CF87E0809304090895F3
:101750000F93CF93DF93EB0190931D4180931E4134
:1017600002E02FE131E442E06DE171E48AE30E949E
:101770003409882371F080911F419091204198276E
:10178000892798278883998381E0DF91CF910F91F2
:0C179000089580E0DF91CF910F91089543
:10179C00990F0008550FAA0BE0E8FEEF1616170676
:1017AC00E807F907C0F012161306E407F50798F0DE
:1017BC00621B730B840B950B39F40A2661F0232BF7
:1017CC00242B252B21F408950A2609F4A140A69573
:0817DC008FEF811D811D0895AE
:1017E4001F93CF93DF939091050993709330B1F0D9
:1017F400142FEB0190E0880F991F809307090E9432
:10180400370C882359F0612FCE010E94570B93E0C7
:1018140090930409DF91CF911F91089580E0DF91A7
:06182400CF911F91089511
:10182A0057FD9058440F551F59F05F3F71F0479587
:10183A00880F97FB991F61F09F3F79F0879508956C
:10184A00121613061406551FF2CF4695F1DF08C08B
:10185A00161617061806991FF1CF869571056105A8
:04186A000894089541
:10186E008091050985FD0DC08091050982FD09C095
:10187E008091050983FD05C0809105098370833031
:10188E0079F7809105098C7129F083E08093040922
:10189E0080E008950E947A0D8111F7CF81E00895BE
:1018AE00109200401092014081E080934501809398
:1018BE004201109247018091410182FDFCCF80EFE1
:1018CE0090E080934A0190934B018091410180FDFD
:0A18DE00FCCF89EB809340010895D0
:1018E800CF93811105C00E94C105C82F811108C07E
:1018F8000E94B600C82F811109C08C2FCF9108957E
:1019080081E080935A418C2FCF9108950E94B706A9
:061918008C2FCF91089511
:10191E00262FAF93BF93E0E0F0E1328131FDFDCF92
:10192E003DE934BF33E13083DC01A050BC4E2C9333
:10193E003DE934BF20E020830196BF91AF91089519
:10194E000E94E40D0E94190D86B182FB882780F952
:10195E000E94D20C789401C088950E94C80A0E94F9
:0C196E00F30D8823C9F30E94D709F6CFBF
:10197A00CF93DF9300D0CDB7DEB7BE016F5F7F4F45
:10198A008FEF9FE30E94A80B882311F08981817051
:0A199A000F900F90DF91CF91089598
:1019A400CF93882369F081E00E94740CC82F0E94B1
:1019B400F00DC11103C084E080935C41CF91089580
:0A19C40080E00E94740CC82FF2CFDF
:1019CE001092554110925641E0E6F8E081E083878F
:1019DE0080E9858383E087838BE890E08087918719
:0419EE0016820895C0
:1019F200092E0394000C11F4882352F0BB0F40F41B
:101A0200BF2B11F460FF04C06F5F7F4F8F4F9F4F5A
:021A1200089535
:101A14009091640895FF09C0909164089064909334
:0E1A240064088093620881E0089580E00895D0
:101A32000E94350D0E94270D0E94820D0E94E70C24
:0C1A42000E946A0D0E94BD0D0C94570C10
:101A4E00E0E0F9E084E08083118281E082838DEF13
:0C1A5E0085838FE0868385E083830895F4
:101A6A00E0E2F4E088E8828B88E08183E0E6F4E053
:0A1A7A0081E0858385E081830895F3
:101A8400EDE1F1E4908381837283638344E0BF01D9
:061A94008AE30C94F20B42
:101A9A00EC010E94FE0D0E94FD0DCE010E94FF0D79
:061AAA00CE010E94FB0DBD
:101AB00060911541709116418091174190911841A4
:021AC000089587
:101AC2006091194170911A4180911B4190911C4182
:021AD200089575
:101AD400E0E2F4E081E08583818382E082830895FB
:101AE4008091640886FB882780F991E0892708950E
:101AF40090910509937081E0933009F080E0089596
:101B0400E0E0F4E08CE0818398E093878487089593
:101B1400242F0E94900C252F0E94900C0C94DF0D12
:101B240003D0808199270895FC01E050FC4E08956C
:0E1B34005058BB27AA270E94CD080C94F90C2C
:0E1B420000240A9416161706180609060895C0
:0E1B500000240A9412161306140605060895C2
:0E1B5E00E894BB2766277727CB0197F90895F7
:0E1B6C000E94960D608171818281938108959F
:0C1B7A00E0E6F8E0868180648683089530
:0C1B86008091640885FB882780F9089591
:0C1B920062E078E081E090E30C94420DEA
:0C1B9E0097F99F6780E870E060E0089510
:0A1BAA000E94CE0B08F48FEF08959F
:0A1BB4000E94960D80819181089532
:0A1BBE000E948F0C272F0C94900C4E
:081BC80083E0809350000895B2
:081BD0000E94F4070C94F90CCB
:081BD8000E9463080C94F90C53
:061BE00080915A410895B6
:061BE60080915B410895AF
:061BEC009FEF80EC08955C
:041BF2000C9400004F
:041BF6000E94B40095
:021BFA0008954C
:021BFC0008954A
:021BFE00089548
:041C00000000C841D7
:041C04000000C841D3
:02000004008278
:090000000000000000C00D00002A
:00000001FF
